{
  "_format": "hh-sol-artifact-1",
  "contractName": "TokenSale",
  "sourceName": "contracts/TokenSale.sol",
  "abi": [
    {
      "inputs": [
        {
          "internalType": "contract IMintableToken",
          "name": "token",
          "type": "address"
        },
        {
          "internalType": "contract IVesting",
          "name": "vesting",
          "type": "address"
        }
      ],
      "stateMutability": "nonpayable",
      "type": "constructor"
    },
    {
      "inputs": [],
      "name": "InvalidCall",
      "type": "error"
    },
    {
      "anonymous": false,
      "inputs": [
        {
          "indexed": true,
          "internalType": "address",
          "name": "previousOwner",
          "type": "address"
        },
        {
          "indexed": true,
          "internalType": "address",
          "name": "newOwner",
          "type": "address"
        }
      ],
      "name": "OwnershipTransferred",
      "type": "event"
    },
    {
      "inputs": [],
      "name": "TOKEN",
      "outputs": [
        {
          "internalType": "contract IMintableToken",
          "name": "",
          "type": "address"
        }
      ],
      "stateMutability": "view",
      "type": "function"
    },
    {
      "inputs": [],
      "name": "VESTING",
      "outputs": [
        {
          "internalType": "contract IVesting",
          "name": "",
          "type": "address"
        }
      ],
      "stateMutability": "view",
      "type": "function"
    },
    {
      "inputs": [
        {
          "internalType": "contract IERC20",
          "name": "token",
          "type": "address"
        },
        {
          "internalType": "address",
          "name": "beneficiary",
          "type": "address"
        },
        {
          "internalType": "uint256",
          "name": "amount",
          "type": "uint256"
        }
      ],
      "name": "buy",
      "outputs": [],
      "stateMutability": "nonpayable",
      "type": "function"
    },
    {
      "inputs": [
        {
          "internalType": "address",
          "name": "beneficiary",
          "type": "address"
        },
        {
          "internalType": "uint256",
          "name": "amount",
          "type": "uint256"
        }
      ],
      "name": "buy",
      "outputs": [],
      "stateMutability": "payable",
      "type": "function"
    },
    {
      "inputs": [
        {
          "internalType": "contract IERC20",
          "name": "token",
          "type": "address"
        }
      ],
      "name": "currentERC20Price",
      "outputs": [
        {
          "internalType": "uint256",
          "name": "",
          "type": "uint256"
        }
      ],
      "stateMutability": "view",
      "type": "function"
    },
    {
      "inputs": [],
      "name": "currentTokenAllocated",
      "outputs": [
        {
          "internalType": "uint256",
          "name": "",
          "type": "uint256"
        }
      ],
      "stateMutability": "view",
      "type": "function"
    },
    {
      "inputs": [],
      "name": "currentTokenLimit",
      "outputs": [
        {
          "internalType": "uint256",
          "name": "",
          "type": "uint256"
        }
      ],
      "stateMutability": "view",
      "type": "function"
    },
    {
      "inputs": [],
      "name": "currentTokenPrice",
      "outputs": [
        {
          "internalType": "uint256",
          "name": "",
          "type": "uint256"
        }
      ],
      "stateMutability": "view",
      "type": "function"
    },
    {
      "inputs": [],
      "name": "currentVestedDate",
      "outputs": [
        {
          "internalType": "uint256",
          "name": "",
          "type": "uint256"
        }
      ],
      "stateMutability": "view",
      "type": "function"
    },
    {
      "inputs": [],
      "name": "info",
      "outputs": [
        {
          "internalType": "uint256",
          "name": "",
          "type": "uint256"
        },
        {
          "internalType": "uint256",
          "name": "",
          "type": "uint256"
        },
        {
          "internalType": "uint256",
          "name": "",
          "type": "uint256"
        },
        {
          "internalType": "uint256",
          "name": "",
          "type": "uint256"
        }
      ],
      "stateMutability": "view",
      "type": "function"
    },
    {
      "inputs": [],
      "name": "owner",
      "outputs": [
        {
          "internalType": "address",
          "name": "",
          "type": "address"
        }
      ],
      "stateMutability": "view",
      "type": "function"
    },
    {
      "inputs": [
        {
          "internalType": "uint256",
          "name": "amount",
          "type": "uint256"
        }
      ],
      "name": "purchaseable",
      "outputs": [
        {
          "internalType": "bool",
          "name": "",
          "type": "bool"
        }
      ],
      "stateMutability": "view",
      "type": "function"
    },
    {
      "inputs": [],
      "name": "renounceOwnership",
      "outputs": [],
      "stateMutability": "nonpayable",
      "type": "function"
    },
    {
      "inputs": [
        {
          "internalType": "uint256",
          "name": "limit",
          "type": "uint256"
        }
      ],
      "name": "setTokenLimit",
      "outputs": [],
      "stateMutability": "nonpayable",
      "type": "function"
    },
    {
      "inputs": [
        {
          "internalType": "contract IERC20",
          "name": "token",
          "type": "address"
        },
        {
          "internalType": "uint256",
          "name": "price",
          "type": "uint256"
        }
      ],
      "name": "setTokenPrice",
      "outputs": [],
      "stateMutability": "nonpayable",
      "type": "function"
    },
    {
      "inputs": [
        {
          "internalType": "uint256",
          "name": "price",
          "type": "uint256"
        }
      ],
      "name": "setTokenPrice",
      "outputs": [],
      "stateMutability": "nonpayable",
      "type": "function"
    },
    {
      "inputs": [
        {
          "internalType": "uint256",
          "name": "date",
          "type": "uint256"
        }
      ],
      "name": "setVestedDate",
      "outputs": [],
      "stateMutability": "nonpayable",
      "type": "function"
    },
    {
      "inputs": [
        {
          "internalType": "address",
          "name": "newOwner",
          "type": "address"
        }
      ],
      "name": "transferOwnership",
      "outputs": [],
      "stateMutability": "nonpayable",
      "type": "function"
    },
    {
      "inputs": [
        {
          "internalType": "address",
          "name": "recipient",
          "type": "address"
        }
      ],
      "name": "withdraw",
      "outputs": [],
      "stateMutability": "nonpayable",
      "type": "function"
    },
    {
      "inputs": [
        {
          "internalType": "contract IERC20",
          "name": "token",
          "type": "address"
        },
        {
          "internalType": "address",
          "name": "recipient",
          "type": "address"
        }
      ],
      "name": "withdraw",
      "outputs": [],
      "stateMutability": "nonpayable",
      "type": "function"
    }
  ],
  "bytecode": "0x60c060405234801561001057600080fd5b506040516110f73803806110f783398101604081905261002f916100bb565b61003833610053565b600180556001600160a01b039182166080521660a0526100f5565b600080546001600160a01b038381166001600160a01b0319831681178455604051919092169283917f8be0079c531659141344cd1fd0a4f28419497f9722a3daafe3b4186f6b6457e09190a35050565b6001600160a01b03811681146100b857600080fd5b50565b600080604083850312156100ce57600080fd5b82516100d9816100a3565b60208401519092506100ea816100a3565b809150509250929050565b60805160a051610fcf610128600039600081816101580152818161049801526107090152600061029b0152610fcf6000f3fe60806040526004361061011f5760003560e01c80638a3252db116100a0578063c0e68fec11610064578063c0e68fec1461036d578063cce7ec131461038d578063ea8356d8146103a0578063f2fde38b146103b6578063f940e385146103d657600080fd5b80638a3252db146102bd5780638cb1057a146102d35780638da5cb5b146102e95780638e97b53e14610307578063ba5824b11461033757600080fd5b806351cff8d9116100e757806351cff8d9146102105780636a61e5fc14610230578063715018a61461025057806371b3659e1461026557806382bfefc81461028957600080fd5b8063153e66e614610124578063156ca89414610146578063370158ea1461019757806340a2b047146101d0578063431f63c9146101f0575b600080fd5b34801561013057600080fd5b5061014461013f366004610d98565b6103f6565b005b34801561015257600080fd5b5061017a7f000000000000000000000000000000000000000000000000000000000000000081565b6040516001600160a01b0390911681526020015b60405180910390f35b3480156101a357600080fd5b5060025460045460055460065460408051948552602085019390935291830152606082015260800161018e565b3480156101dc57600080fd5b506101446101eb366004610dd9565b610512565b3480156101fc57600080fd5b5061014461020b366004610df2565b61051f565b34801561021c57600080fd5b5061014461022b366004610e1e565b610543565b34801561023c57600080fd5b5061014461024b366004610dd9565b6105b9565b34801561025c57600080fd5b506101446105c6565b34801561027157600080fd5b5061027b60025481565b60405190815260200161018e565b34801561029557600080fd5b5061017a7f000000000000000000000000000000000000000000000000000000000000000081565b3480156102c957600080fd5b5061027b60055481565b3480156102df57600080fd5b5061027b60045481565b3480156102f557600080fd5b506000546001600160a01b031661017a565b34801561031357600080fd5b50610327610322366004610dd9565b6105da565b604051901515815260200161018e565b34801561034357600080fd5b5061027b610352366004610e1e565b6001600160a01b031660009081526003602052604090205490565b34801561037957600080fd5b50610144610388366004610dd9565b61061c565b61014461039b366004610df2565b610629565b3480156103ac57600080fd5b5061027b60065481565b3480156103c257600080fd5b506101446103d1366004610e1e565b610786565b3480156103e257600080fd5b506101446103f1366004610e3b565b6107ff565b6103ff816105da565b61041c5760405163574b16a760e11b815260040160405180910390fd5b6001600160a01b03831660009081526003602052604090205461046290849084903090670de0b6b3a7640000906104539087610e8a565b61045d9190610ea9565b61090b565b600654604051625e669f60e21b81526001600160a01b0384811660048301526024820184905242604483015260648201929092527f0000000000000000000000000000000000000000000000000000000000000000909116906301799a7c90608401600060405180830381600087803b1580156104de57600080fd5b505af11580156104f2573d6000803e3d6000fd5b5050505080600560008282546105089190610ecb565b9091555050505050565b61051a61096b565b600655565b61052761096b565b6001600160a01b03909116600090815260036020526040902055565b6002600154141561059b5760405162461bcd60e51b815260206004820152601f60248201527f5265656e7472616e637947756172643a207265656e7472616e742063616c6c0060448201526064015b60405180910390fd5b60026001556105a861096b565b6105b281476109c5565b5060018055565b6105c161096b565b600255565b6105ce61096b565b6105d86000610ade565b565b600080821180156105ed57506000600254115b80156105fb57506000600454115b80156106165750600454826005546106139190610ecb565b11155b92915050565b61062461096b565b600455565b6002600154141561067c5760405162461bcd60e51b815260206004820152601f60248201527f5265656e7472616e637947756172643a207265656e7472616e742063616c6c006044820152606401610592565b600260015561068a816105da565b15806106b55750670de0b6b3a7640000600254826106a89190610e8a565b6106b29190610ea9565b34105b156106d35760405163574b16a760e11b815260040160405180910390fd5b600654604051625e669f60e21b81526001600160a01b0384811660048301526024820184905242604483015260648201929092527f0000000000000000000000000000000000000000000000000000000000000000909116906301799a7c90608401600060405180830381600087803b15801561074f57600080fd5b505af1158015610763573d6000803e3d6000fd5b5050505080600560008282546107799190610ecb565b9091555050600180555050565b61078e61096b565b6001600160a01b0381166107f35760405162461bcd60e51b815260206004820152602660248201527f4f776e61626c653a206e6577206f776e657220697320746865207a65726f206160448201526564647265737360d01b6064820152608401610592565b6107fc81610ade565b50565b61080761096b565b6040516370a0823160e01b81523060048201526001600160a01b0383169063a9059cbb90839083906370a082319060240160206040518083038186803b15801561085057600080fd5b505afa158015610864573d6000803e3d6000fd5b505050506040513d601f19601f820116820180604052508101906108889190610ee3565b6040516001600160e01b031960e085901b1681526001600160a01b0390921660048301526024820152604401602060405180830381600087803b1580156108ce57600080fd5b505af11580156108e2573d6000803e3d6000fd5b505050506040513d601f19601f820116820180604052508101906109069190610efc565b505050565b604080516001600160a01b0385811660248301528416604482015260648082018490528251808303909101815260849091019091526020810180516001600160e01b03166323b872dd60e01b179052610965908590610b2e565b50505050565b6000546001600160a01b031633146105d85760405162461bcd60e51b815260206004820181905260248201527f4f776e61626c653a2063616c6c6572206973206e6f7420746865206f776e65726044820152606401610592565b80471015610a155760405162461bcd60e51b815260206004820152601d60248201527f416464726573733a20696e73756666696369656e742062616c616e63650000006044820152606401610592565b6000826001600160a01b03168260405160006040518083038185875af1925050503d8060008114610a62576040519150601f19603f3d011682016040523d82523d6000602084013e610a67565b606091505b50509050806109065760405162461bcd60e51b815260206004820152603a60248201527f416464726573733a20756e61626c6520746f2073656e642076616c75652c207260448201527f6563697069656e74206d617920686176652072657665727465640000000000006064820152608401610592565b600080546001600160a01b038381166001600160a01b0319831681178455604051919092169283917f8be0079c531659141344cd1fd0a4f28419497f9722a3daafe3b4186f6b6457e09190a35050565b6000610b83826040518060400160405280602081526020017f5361666545524332303a206c6f772d6c6576656c2063616c6c206661696c6564815250856001600160a01b0316610c009092919063ffffffff16565b8051909150156109065780806020019051810190610ba19190610efc565b6109065760405162461bcd60e51b815260206004820152602a60248201527f5361666545524332303a204552433230206f7065726174696f6e20646964206e6044820152691bdd081cdd58d8d9595960b21b6064820152608401610592565b6060610c0f8484600085610c19565b90505b9392505050565b606082471015610c7a5760405162461bcd60e51b815260206004820152602660248201527f416464726573733a20696e73756666696369656e742062616c616e636520666f6044820152651c8818d85b1b60d21b6064820152608401610592565b6001600160a01b0385163b610cd15760405162461bcd60e51b815260206004820152601d60248201527f416464726573733a2063616c6c20746f206e6f6e2d636f6e74726163740000006044820152606401610592565b600080866001600160a01b03168587604051610ced9190610f4a565b60006040518083038185875af1925050503d8060008114610d2a576040519150601f19603f3d011682016040523d82523d6000602084013e610d2f565b606091505b5091509150610d3f828286610d4a565b979650505050505050565b60608315610d59575081610c12565b825115610d695782518084602001fd5b8160405162461bcd60e51b81526004016105929190610f66565b6001600160a01b03811681146107fc57600080fd5b600080600060608486031215610dad57600080fd5b8335610db881610d83565b92506020840135610dc881610d83565b929592945050506040919091013590565b600060208284031215610deb57600080fd5b5035919050565b60008060408385031215610e0557600080fd5b8235610e1081610d83565b946020939093013593505050565b600060208284031215610e3057600080fd5b8135610c1281610d83565b60008060408385031215610e4e57600080fd5b8235610e5981610d83565b91506020830135610e6981610d83565b809150509250929050565b634e487b7160e01b600052601160045260246000fd5b6000816000190483118215151615610ea457610ea4610e74565b500290565b600082610ec657634e487b7160e01b600052601260045260246000fd5b500490565b60008219821115610ede57610ede610e74565b500190565b600060208284031215610ef557600080fd5b5051919050565b600060208284031215610f0e57600080fd5b81518015158114610c1257600080fd5b60005b83811015610f39578181015183820152602001610f21565b838111156109655750506000910152565b60008251610f5c818460208701610f1e565b9190910192915050565b6020815260008251806020840152610f85816040850160208701610f1e565b601f01601f1916919091016040019291505056fea26469706673582212208a45c1bc08558dfabf25bf8191dcb8e97e14207a6597eae4c766d0194475fe0964736f6c63430008090033",
  "linkReferences": {},
  "deployedLinkReferences": {}
}