{
  "_format": "hh-sol-artifact-1",
  "contractName": "TokenSwap",
  "sourceName": "contracts/TokenSwap.sol",
  "abi": [
    {
      "inputs": [
        {
          "internalType": "contract IERC20Capped",
          "name": "token",
          "type": "address"
        },
        {
          "internalType": "address",
          "name": "treasury",
          "type": "address"
        },
        {
          "internalType": "uint256",
          "name": "seed",
          "type": "uint256"
        },
        {
          "internalType": "address",
          "name": "admin",
          "type": "address"
        }
      ],
      "stateMutability": "nonpayable",
      "type": "constructor"
    },
    {
      "inputs": [],
      "name": "InvalidAmount",
      "type": "error"
    },
    {
      "anonymous": false,
      "inputs": [
        {
          "indexed": false,
          "internalType": "address",
          "name": "from",
          "type": "address"
        },
        {
          "indexed": false,
          "internalType": "uint256",
          "name": "amount",
          "type": "uint256"
        }
      ],
      "name": "DepositReceived",
      "type": "event"
    },
    {
      "anonymous": false,
      "inputs": [
        {
          "indexed": true,
          "internalType": "address",
          "name": "sender",
          "type": "address"
        },
        {
          "indexed": false,
          "internalType": "uint256",
          "name": "amount",
          "type": "uint256"
        }
      ],
      "name": "ERC20Received",
      "type": "event"
    },
    {
      "anonymous": false,
      "inputs": [
        {
          "indexed": true,
          "internalType": "address",
          "name": "recipient",
          "type": "address"
        },
        {
          "indexed": false,
          "internalType": "uint256",
          "name": "amount",
          "type": "uint256"
        }
      ],
      "name": "ERC20Sent",
      "type": "event"
    },
    {
      "anonymous": false,
      "inputs": [
        {
          "indexed": false,
          "internalType": "address",
          "name": "account",
          "type": "address"
        }
      ],
      "name": "Paused",
      "type": "event"
    },
    {
      "anonymous": false,
      "inputs": [
        {
          "indexed": true,
          "internalType": "bytes32",
          "name": "role",
          "type": "bytes32"
        },
        {
          "indexed": true,
          "internalType": "bytes32",
          "name": "previousAdminRole",
          "type": "bytes32"
        },
        {
          "indexed": true,
          "internalType": "bytes32",
          "name": "newAdminRole",
          "type": "bytes32"
        }
      ],
      "name": "RoleAdminChanged",
      "type": "event"
    },
    {
      "anonymous": false,
      "inputs": [
        {
          "indexed": true,
          "internalType": "bytes32",
          "name": "role",
          "type": "bytes32"
        },
        {
          "indexed": true,
          "internalType": "address",
          "name": "account",
          "type": "address"
        },
        {
          "indexed": true,
          "internalType": "address",
          "name": "sender",
          "type": "address"
        }
      ],
      "name": "RoleGranted",
      "type": "event"
    },
    {
      "anonymous": false,
      "inputs": [
        {
          "indexed": true,
          "internalType": "bytes32",
          "name": "role",
          "type": "bytes32"
        },
        {
          "indexed": true,
          "internalType": "address",
          "name": "account",
          "type": "address"
        },
        {
          "indexed": true,
          "internalType": "address",
          "name": "sender",
          "type": "address"
        }
      ],
      "name": "RoleRevoked",
      "type": "event"
    },
    {
      "anonymous": false,
      "inputs": [
        {
          "indexed": false,
          "internalType": "address",
          "name": "account",
          "type": "address"
        }
      ],
      "name": "Unpaused",
      "type": "event"
    },
    {
      "inputs": [],
      "name": "DEFAULT_ADMIN_ROLE",
      "outputs": [
        {
          "internalType": "bytes32",
          "name": "",
          "type": "bytes32"
        }
      ],
      "stateMutability": "view",
      "type": "function"
    },
    {
      "inputs": [],
      "name": "SEED",
      "outputs": [
        {
          "internalType": "uint256",
          "name": "",
          "type": "uint256"
        }
      ],
      "stateMutability": "view",
      "type": "function"
    },
    {
      "inputs": [],
      "name": "TOKEN",
      "outputs": [
        {
          "internalType": "contract IERC20Capped",
          "name": "",
          "type": "address"
        }
      ],
      "stateMutability": "view",
      "type": "function"
    },
    {
      "inputs": [],
      "name": "TOKEN_CAP",
      "outputs": [
        {
          "internalType": "uint256",
          "name": "",
          "type": "uint256"
        }
      ],
      "stateMutability": "view",
      "type": "function"
    },
    {
      "inputs": [],
      "name": "TREASURY",
      "outputs": [
        {
          "internalType": "address",
          "name": "",
          "type": "address"
        }
      ],
      "stateMutability": "view",
      "type": "function"
    },
    {
      "inputs": [],
      "name": "balanceEther",
      "outputs": [
        {
          "internalType": "uint256",
          "name": "",
          "type": "uint256"
        }
      ],
      "stateMutability": "view",
      "type": "function"
    },
    {
      "inputs": [],
      "name": "balanceToken",
      "outputs": [
        {
          "internalType": "uint256",
          "name": "",
          "type": "uint256"
        }
      ],
      "stateMutability": "view",
      "type": "function"
    },
    {
      "inputs": [
        {
          "internalType": "address",
          "name": "recipient",
          "type": "address"
        },
        {
          "internalType": "uint256",
          "name": "amount",
          "type": "uint256"
        }
      ],
      "name": "buy",
      "outputs": [],
      "stateMutability": "payable",
      "type": "function"
    },
    {
      "inputs": [
        {
          "internalType": "uint16",
          "name": "percent",
          "type": "uint16"
        }
      ],
      "name": "buyFor",
      "outputs": [],
      "stateMutability": "nonpayable",
      "type": "function"
    },
    {
      "inputs": [
        {
          "internalType": "uint256",
          "name": "amount",
          "type": "uint256"
        }
      ],
      "name": "buyingFor",
      "outputs": [
        {
          "internalType": "uint256",
          "name": "",
          "type": "uint256"
        }
      ],
      "stateMutability": "view",
      "type": "function"
    },
    {
      "inputs": [
        {
          "internalType": "bytes32",
          "name": "role",
          "type": "bytes32"
        }
      ],
      "name": "getRoleAdmin",
      "outputs": [
        {
          "internalType": "bytes32",
          "name": "",
          "type": "bytes32"
        }
      ],
      "stateMutability": "view",
      "type": "function"
    },
    {
      "inputs": [
        {
          "internalType": "bytes32",
          "name": "role",
          "type": "bytes32"
        },
        {
          "internalType": "address",
          "name": "account",
          "type": "address"
        }
      ],
      "name": "grantRole",
      "outputs": [],
      "stateMutability": "nonpayable",
      "type": "function"
    },
    {
      "inputs": [
        {
          "internalType": "bytes32",
          "name": "role",
          "type": "bytes32"
        },
        {
          "internalType": "address",
          "name": "account",
          "type": "address"
        }
      ],
      "name": "hasRole",
      "outputs": [
        {
          "internalType": "bool",
          "name": "",
          "type": "bool"
        }
      ],
      "stateMutability": "view",
      "type": "function"
    },
    {
      "inputs": [
        {
          "internalType": "uint16",
          "name": "percent",
          "type": "uint16"
        }
      ],
      "name": "interest",
      "outputs": [],
      "stateMutability": "nonpayable",
      "type": "function"
    },
    {
      "inputs": [],
      "name": "pause",
      "outputs": [],
      "stateMutability": "nonpayable",
      "type": "function"
    },
    {
      "inputs": [],
      "name": "paused",
      "outputs": [
        {
          "internalType": "bool",
          "name": "",
          "type": "bool"
        }
      ],
      "stateMutability": "view",
      "type": "function"
    },
    {
      "inputs": [
        {
          "internalType": "bytes32",
          "name": "role",
          "type": "bytes32"
        },
        {
          "internalType": "address",
          "name": "account",
          "type": "address"
        }
      ],
      "name": "renounceRole",
      "outputs": [],
      "stateMutability": "nonpayable",
      "type": "function"
    },
    {
      "inputs": [
        {
          "internalType": "bytes32",
          "name": "role",
          "type": "bytes32"
        },
        {
          "internalType": "address",
          "name": "account",
          "type": "address"
        }
      ],
      "name": "revokeRole",
      "outputs": [],
      "stateMutability": "nonpayable",
      "type": "function"
    },
    {
      "inputs": [
        {
          "internalType": "address",
          "name": "recipient",
          "type": "address"
        },
        {
          "internalType": "uint256",
          "name": "amount",
          "type": "uint256"
        }
      ],
      "name": "sell",
      "outputs": [],
      "stateMutability": "nonpayable",
      "type": "function"
    },
    {
      "inputs": [
        {
          "internalType": "uint16",
          "name": "percent",
          "type": "uint16"
        }
      ],
      "name": "sellFor",
      "outputs": [],
      "stateMutability": "nonpayable",
      "type": "function"
    },
    {
      "inputs": [
        {
          "internalType": "uint256",
          "name": "amount",
          "type": "uint256"
        }
      ],
      "name": "sellingFor",
      "outputs": [
        {
          "internalType": "uint256",
          "name": "",
          "type": "uint256"
        }
      ],
      "stateMutability": "view",
      "type": "function"
    },
    {
      "inputs": [
        {
          "internalType": "bytes4",
          "name": "interfaceId",
          "type": "bytes4"
        }
      ],
      "name": "supportsInterface",
      "outputs": [
        {
          "internalType": "bool",
          "name": "",
          "type": "bool"
        }
      ],
      "stateMutability": "view",
      "type": "function"
    },
    {
      "inputs": [],
      "name": "tokenValue",
      "outputs": [
        {
          "internalType": "uint256",
          "name": "",
          "type": "uint256"
        }
      ],
      "stateMutability": "view",
      "type": "function"
    },
    {
      "inputs": [],
      "name": "unpause",
      "outputs": [],
      "stateMutability": "nonpayable",
      "type": "function"
    },
    {
      "stateMutability": "payable",
      "type": "receive"
    }
  ],
  "bytecode": "0x6101006040526002805466ffffffffffff0019166613884e201388001790553480156200002b57600080fd5b5060405162001b1638038062001b168339810160408190526200004e91620002ae565b600180556002805460ff19169055620000696000826200013b565b620000957f65d7a28e3265b37a6474929f336521b332c1681b933f6cb9f3376673440d862a826200013b565b6001600160a01b03808516608081905290841660a05260408051631aa93a7560e11b8152905163355274ea916004808201926020929091908290030181600087803b158015620000e457600080fd5b505af1158015620000f9573d6000803e3d6000fd5b505050506040513d601f19601f820116820180604052508101906200011f91906200030a565b60c05260e0829052620001316200014b565b5050505062000324565b620001478282620001a8565b5050565b6200015562000248565b6002805460ff191660011790557f62e78cea01bee320cd4e420270b5ea74000d11b0c9f74754ebdbfc544b05a2586200018b3390565b6040516001600160a01b03909116815260200160405180910390a1565b6000828152602081815260408083206001600160a01b038516845290915290205460ff1662000147576000828152602081815260408083206001600160a01b03851684529091529020805460ff19166001179055620002043390565b6001600160a01b0316816001600160a01b0316837f2f8788117e7eff1d82e926ec794901d17c78024a50270940304540a733656f0d60405160405180910390a45050565b60025460ff1615620002935760405162461bcd60e51b815260206004820152601060248201526f14185d5cd8589b194e881c185d5cd95960821b604482015260640160405180910390fd5b565b6001600160a01b0381168114620002ab57600080fd5b50565b60008060008060808587031215620002c557600080fd5b8451620002d28162000295565b6020860151909450620002e58162000295565b604086015160608701519194509250620002ff8162000295565b939692955090935050565b6000602082840312156200031d57600080fd5b5051919050565b60805160a05160c05160e0516117876200038f600039600081816101e40152610b790152600081816103e20152610b5801526000818161026b0152610a3f0152600081816103790152818161069d01528181610750015281816108350152610a1001526117876000f3fe60806040526004361061014f5760003560e01c806382bfefc8116100b6578063a3eeabd01161006f578063a3eeabd01461042e578063bd6b0dbd1461044e578063c622b22e1461046e578063cce7ec131461048e578063d11e2f0c146104a1578063d547741f146104c157600080fd5b806382bfefc8146103675780638456cb591461039b57806391d14854146103b05780639a6524f1146103d0578063a217fddf14610404578063a30955af1461041957600080fd5b8063323bde9211610108578063323bde92146102c757806336568abe146102da5780633d22a3b5146102fa5780633f4ba83a1461031a5780635c975abb1461032f5780636c197ff51461034757600080fd5b806301ffc9a71461019d5780630edc4737146101d25780631ec7e34514610214578063248a9ca3146102295780632d2c5565146102595780632f2ff15d146102a557600080fd5b36610198577f9936746a4565f9766fa768f88f56a7487c78780ac179562773d1c75c5269537e33604080516001600160a01b0390921682523460208301520160405180910390a1005b600080fd5b3480156101a957600080fd5b506101bd6101b8366004611484565b6104e1565b60405190151581526020015b60405180910390f35b3480156101de57600080fd5b506102067f000000000000000000000000000000000000000000000000000000000000000081565b6040519081526020016101c9565b34801561022057600080fd5b50610206610518565b34801561023557600080fd5b506102066102443660046114ae565b60009081526020819052604090206001015490565b34801561026557600080fd5b5061028d7f000000000000000000000000000000000000000000000000000000000000000081565b6040516001600160a01b0390911681526020016101c9565b3480156102b157600080fd5b506102c56102c03660046114e3565b610528565b005b3480156102d357600080fd5b5047610206565b3480156102e657600080fd5b506102c56102f53660046114e3565b610552565b34801561030657600080fd5b506102066103153660046114ae565b6105d5565b34801561032657600080fd5b506102c56105e1565b34801561033b57600080fd5b5060025460ff166101bd565b34801561035357600080fd5b506102c561036236600461150f565b610616565b34801561037357600080fd5b5061028d7f000000000000000000000000000000000000000000000000000000000000000081565b3480156103a757600080fd5b506102c56107c2565b3480156103bc57600080fd5b506101bd6103cb3660046114e3565b6107f4565b3480156103dc57600080fd5b506102067f000000000000000000000000000000000000000000000000000000000000000081565b34801561041057600080fd5b50610206600081565b34801561042557600080fd5b5061020661081d565b34801561043a57600080fd5b506102c5610449366004611539565b6108b7565b34801561045a57600080fd5b506102c5610469366004611539565b610900565b34801561047a57600080fd5b506102066104893660046114ae565b61094d565b6102c561049c36600461150f565b61095e565b3480156104ad57600080fd5b506102c56104bc366004611539565b610acd565b3480156104cd57600080fd5b506102c56104dc3660046114e3565b610b1e565b60006001600160e01b03198216637965db0b60e01b148061051257506301ffc9a760e01b6001600160e01b03198316145b92915050565b600061052347610b43565b905090565b60008281526020819052604090206001015461054381610bb5565b61054d8383610bbf565b505050565b6001600160a01b03811633146105c75760405162461bcd60e51b815260206004820152602f60248201527f416363657373436f6e74726f6c3a2063616e206f6e6c792072656e6f756e636560448201526e103937b632b9903337b91039b2b63360891b60648201526084015b60405180910390fd5b6105d18282610c43565b5050565b60006105128247610ca8565b7f65d7a28e3265b37a6474929f336521b332c1681b933f6cb9f3376673440d862a61060b81610bb5565b610613610cee565b50565b61061e610d40565b600260015414156106715760405162461bcd60e51b815260206004820152601f60248201527f5265656e7472616e637947756172643a207265656e7472616e742063616c6c0060448201526064016105be565b6002600155604051636eb1769f60e11b81526001600160a01b03838116600483015230602483015282917f00000000000000000000000000000000000000000000000000000000000000009091169063dd62ed3e9060440160206040518083038186803b1580156106e157600080fd5b505afa1580156106f5573d6000803e3d6000fd5b505050506040513d601f19601f82011682018060405250810190610719919061155d565b10156107385760405163162908e360e11b815260040160405180910390fd5b61074b826107468347610ca8565b610d88565b6107777f0000000000000000000000000000000000000000000000000000000000000000833084610ea1565b816001600160a01b03167f7fd6e121e69ec2842a4a29502be0a852f8de98e1b672cadf23dc1786ee3945e6826040516107b291815260200190565b60405180910390a2505060018055565b7f65d7a28e3265b37a6474929f336521b332c1681b933f6cb9f3376673440d862a6107ec81610bb5565b610613610f12565b6000918252602082815260408084206001600160a01b0393909316845291905290205460ff1690565b6040516370a0823160e01b81523060048201526000907f00000000000000000000000000000000000000000000000000000000000000006001600160a01b0316906370a082319060240160206040518083038186803b15801561087f57600080fd5b505afa158015610893573d6000803e3d6000fd5b505050506040513d601f19601f82011682018060405250810190610523919061155d565b7f850d585eb7f024ccee5e68e55f2c26cc72e1e6ee456acf62135757a5eb9d4a106108e181610bb5565b506002805461ffff9092166101000262ffff0019909216919091179055565b7f850d585eb7f024ccee5e68e55f2c26cc72e1e6ee456acf62135757a5eb9d4a1061092a81610bb5565b506002805461ffff90921663010000000264ffff00000019909216919091179055565b60006105128247610f4f565b610f4f565b610966610d40565b600260015414156109b95760405162461bcd60e51b815260206004820152601f60248201527f5265656e7472616e637947756172643a207265656e7472616e742063616c6c0060448201526064016105be565b600260015560006109ce82610959344761158c565b90508015806109dc57508034105b806109ed5750816109eb61081d565b105b15610a0b5760405163162908e360e11b815260040160405180910390fd5b610a367f00000000000000000000000000000000000000000000000000000000000000008484610f88565b600254610a81907f0000000000000000000000000000000000000000000000000000000000000000906107469061271090610a7b903490610100900461ffff16610fb8565b90610fc4565b826001600160a01b03167fa1ebb5259cd13ff7cad5a7e16bbfd7342534942567e5bae33bfd319df85909d383604051610abc91815260200190565b60405180910390a250506001805550565b7f850d585eb7f024ccee5e68e55f2c26cc72e1e6ee456acf62135757a5eb9d4a10610af781610bb5565b506002805461ffff909216650100000000000266ffff000000000019909216919091179055565b600082815260208190526040902060010154610b3981610bb5565b61054d8383610c43565b6000610512610ba3610b5361081d565b610b9d7f00000000000000000000000000000000000000000000000000000000000000007f0000000000000000000000000000000000000000000000000000000000000000610fd0565b90610fdc565b610a7b84670de0b6b3a7640000610fb8565b6106138133610fe8565b610bc982826107f4565b6105d1576000828152602081815260408083206001600160a01b03851684529091529020805460ff19166001179055610bff3390565b6001600160a01b0316816001600160a01b0316837f2f8788117e7eff1d82e926ec794901d17c78024a50270940304540a733656f0d60405160405180910390a45050565b610c4d82826107f4565b156105d1576000828152602081815260408083206001600160a01b0385168085529252808320805460ff1916905551339285917ff6391f5c32d9c69d2a47ea670b442974b53935d1edc7fd64eb21e047a839171b9190a45050565b6000610ce7670de0b6b3a7640000610a7b612710610a7b600260059054906101000a900461ffff1661ffff16610ce189610ce18a610b43565b90610fb8565b9392505050565b610cf661104c565b6002805460ff191690557f5db9ee0a495bf2e6ff9c91a7834c1ba4fdd244a5e8aa4e537bd38aeae4b073aa335b6040516001600160a01b03909116815260200160405180910390a1565b60025460ff1615610d865760405162461bcd60e51b815260206004820152601060248201526f14185d5cd8589b194e881c185d5cd95960821b60448201526064016105be565b565b80471015610dd85760405162461bcd60e51b815260206004820152601d60248201527f416464726573733a20696e73756666696369656e742062616c616e636500000060448201526064016105be565b6000826001600160a01b03168260405160006040518083038185875af1925050503d8060008114610e25576040519150601f19603f3d011682016040523d82523d6000602084013e610e2a565b606091505b505090508061054d5760405162461bcd60e51b815260206004820152603a60248201527f416464726573733a20756e61626c6520746f2073656e642076616c75652c207260448201527f6563697069656e74206d6179206861766520726576657274656400000000000060648201526084016105be565b6040516001600160a01b0380851660248301528316604482015260648101829052610f0c9085906323b872dd60e01b906084015b60408051601f198184030181529190526020810180516001600160e01b03166001600160e01b031990931692909217909152611095565b50505050565b610f1a610d40565b6002805460ff191660011790557f62e78cea01bee320cd4e420270b5ea74000d11b0c9f74754ebdbfc544b05a258610d233390565b6000610ce7670de0b6b3a7640000610a7b612710610a7b600260039054906101000a900461ffff1661ffff16610ce189610ce18a610b43565b6040516001600160a01b03831660248201526044810182905261054d90849063a9059cbb60e01b90606401610ed5565b6000610ce782846115a3565b6000610ce782846115c2565b6000610ce782846115e4565b6000610ce7828461158c565b610ff282826107f4565b6105d15761100a816001600160a01b03166014611167565b611015836020611167565b604051602001611026929190611628565b60408051601f198184030181529082905262461bcd60e51b82526105be9160040161169d565b60025460ff16610d865760405162461bcd60e51b815260206004820152601460248201527314185d5cd8589b194e881b9bdd081c185d5cd95960621b60448201526064016105be565b60006110ea826040518060400160405280602081526020017f5361666545524332303a206c6f772d6c6576656c2063616c6c206661696c6564815250856001600160a01b03166113039092919063ffffffff16565b80519091501561054d578080602001905181019061110891906116d0565b61054d5760405162461bcd60e51b815260206004820152602a60248201527f5361666545524332303a204552433230206f7065726174696f6e20646964206e6044820152691bdd081cdd58d8d9595960b21b60648201526084016105be565b606060006111768360026115a3565b6111819060026115e4565b67ffffffffffffffff811115611199576111996116f2565b6040519080825280601f01601f1916602001820160405280156111c3576020820181803683370190505b509050600360fc1b816000815181106111de576111de611708565b60200101906001600160f81b031916908160001a905350600f60fb1b8160018151811061120d5761120d611708565b60200101906001600160f81b031916908160001a90535060006112318460026115a3565b61123c9060016115e4565b90505b60018111156112b4576f181899199a1a9b1b9c1cb0b131b232b360811b85600f166010811061127057611270611708565b1a60f81b82828151811061128657611286611708565b60200101906001600160f81b031916908160001a90535060049490941c936112ad8161171e565b905061123f565b508315610ce75760405162461bcd60e51b815260206004820181905260248201527f537472696e67733a20686578206c656e67746820696e73756666696369656e7460448201526064016105be565b6060611312848460008561131a565b949350505050565b60608247101561137b5760405162461bcd60e51b815260206004820152602660248201527f416464726573733a20696e73756666696369656e742062616c616e636520666f6044820152651c8818d85b1b60d21b60648201526084016105be565b6001600160a01b0385163b6113d25760405162461bcd60e51b815260206004820152601d60248201527f416464726573733a2063616c6c20746f206e6f6e2d636f6e747261637400000060448201526064016105be565b600080866001600160a01b031685876040516113ee9190611735565b60006040518083038185875af1925050503d806000811461142b576040519150601f19603f3d011682016040523d82523d6000602084013e611430565b606091505b509150915061144082828661144b565b979650505050505050565b6060831561145a575081610ce7565b82511561146a5782518084602001fd5b8160405162461bcd60e51b81526004016105be919061169d565b60006020828403121561149657600080fd5b81356001600160e01b031981168114610ce757600080fd5b6000602082840312156114c057600080fd5b5035919050565b80356001600160a01b03811681146114de57600080fd5b919050565b600080604083850312156114f657600080fd5b82359150611506602084016114c7565b90509250929050565b6000806040838503121561152257600080fd5b61152b836114c7565b946020939093013593505050565b60006020828403121561154b57600080fd5b813561ffff81168114610ce757600080fd5b60006020828403121561156f57600080fd5b5051919050565b634e487b7160e01b600052601160045260246000fd5b60008282101561159e5761159e611576565b500390565b60008160001904831182151516156115bd576115bd611576565b500290565b6000826115df57634e487b7160e01b600052601260045260246000fd5b500490565b600082198211156115f7576115f7611576565b500190565b60005b838110156116175781810151838201526020016115ff565b83811115610f0c5750506000910152565b7f416363657373436f6e74726f6c3a206163636f756e74200000000000000000008152600083516116608160178501602088016115fc565b7001034b99036b4b9b9b4b733903937b6329607d1b60179184019182015283516116918160288401602088016115fc565b01602801949350505050565b60208152600082518060208401526116bc8160408501602087016115fc565b601f01601f19169190910160400192915050565b6000602082840312156116e257600080fd5b81518015158114610ce757600080fd5b634e487b7160e01b600052604160045260246000fd5b634e487b7160e01b600052603260045260246000fd5b60008161172d5761172d611576565b506000190190565b600082516117478184602087016115fc565b919091019291505056fea26469706673582212202094f5eb8708a45acb4e9b01800290a0ad7cc1099a69730cdde9adcf54a0e74c64736f6c63430008090033",
  "linkReferences": {},
  "deployedLinkReferences": {}
}