{
  "_format": "hh-sol-artifact-1",
  "contractName": "TokenVesting",
  "sourceName": "contracts/TokenVesting.sol",
  "abi": [
    {
      "inputs": [
        {
          "internalType": "contract IERC20Mintable",
          "name": "token",
          "type": "address"
        },
        {
          "internalType": "address",
          "name": "admin",
          "type": "address"
        }
      ],
      "stateMutability": "nonpayable",
      "type": "constructor"
    },
    {
      "inputs": [],
      "name": "InvalidCall",
      "type": "error"
    },
    {
      "anonymous": false,
      "inputs": [
        {
          "indexed": true,
          "internalType": "address",
          "name": "token",
          "type": "address"
        },
        {
          "indexed": true,
          "internalType": "address",
          "name": "beneficiary",
          "type": "address"
        },
        {
          "indexed": false,
          "internalType": "uint256",
          "name": "amount",
          "type": "uint256"
        }
      ],
      "name": "ERC20Released",
      "type": "event"
    },
    {
      "anonymous": false,
      "inputs": [
        {
          "indexed": true,
          "internalType": "address",
          "name": "beneficiary",
          "type": "address"
        },
        {
          "indexed": false,
          "internalType": "uint256",
          "name": "amount",
          "type": "uint256"
        }
      ],
      "name": "EtherRefunded",
      "type": "event"
    },
    {
      "anonymous": false,
      "inputs": [
        {
          "indexed": false,
          "internalType": "address",
          "name": "account",
          "type": "address"
        }
      ],
      "name": "Paused",
      "type": "event"
    },
    {
      "anonymous": false,
      "inputs": [
        {
          "indexed": true,
          "internalType": "bytes32",
          "name": "role",
          "type": "bytes32"
        },
        {
          "indexed": true,
          "internalType": "bytes32",
          "name": "previousAdminRole",
          "type": "bytes32"
        },
        {
          "indexed": true,
          "internalType": "bytes32",
          "name": "newAdminRole",
          "type": "bytes32"
        }
      ],
      "name": "RoleAdminChanged",
      "type": "event"
    },
    {
      "anonymous": false,
      "inputs": [
        {
          "indexed": true,
          "internalType": "bytes32",
          "name": "role",
          "type": "bytes32"
        },
        {
          "indexed": true,
          "internalType": "address",
          "name": "account",
          "type": "address"
        },
        {
          "indexed": true,
          "internalType": "address",
          "name": "sender",
          "type": "address"
        }
      ],
      "name": "RoleGranted",
      "type": "event"
    },
    {
      "anonymous": false,
      "inputs": [
        {
          "indexed": true,
          "internalType": "bytes32",
          "name": "role",
          "type": "bytes32"
        },
        {
          "indexed": true,
          "internalType": "address",
          "name": "account",
          "type": "address"
        },
        {
          "indexed": true,
          "internalType": "address",
          "name": "sender",
          "type": "address"
        }
      ],
      "name": "RoleRevoked",
      "type": "event"
    },
    {
      "anonymous": false,
      "inputs": [
        {
          "indexed": false,
          "internalType": "address",
          "name": "account",
          "type": "address"
        }
      ],
      "name": "Unpaused",
      "type": "event"
    },
    {
      "inputs": [],
      "name": "DEFAULT_ADMIN_ROLE",
      "outputs": [
        {
          "internalType": "bytes32",
          "name": "",
          "type": "bytes32"
        }
      ],
      "stateMutability": "view",
      "type": "function"
    },
    {
      "inputs": [],
      "name": "TOKEN",
      "outputs": [
        {
          "internalType": "contract IERC20Mintable",
          "name": "",
          "type": "address"
        }
      ],
      "stateMutability": "view",
      "type": "function"
    },
    {
      "inputs": [
        {
          "internalType": "bytes32",
          "name": "role",
          "type": "bytes32"
        }
      ],
      "name": "getRoleAdmin",
      "outputs": [
        {
          "internalType": "bytes32",
          "name": "",
          "type": "bytes32"
        }
      ],
      "stateMutability": "view",
      "type": "function"
    },
    {
      "inputs": [
        {
          "internalType": "bytes32",
          "name": "role",
          "type": "bytes32"
        },
        {
          "internalType": "address",
          "name": "account",
          "type": "address"
        }
      ],
      "name": "grantRole",
      "outputs": [],
      "stateMutability": "nonpayable",
      "type": "function"
    },
    {
      "inputs": [
        {
          "internalType": "bytes32",
          "name": "role",
          "type": "bytes32"
        },
        {
          "internalType": "address",
          "name": "account",
          "type": "address"
        }
      ],
      "name": "hasRole",
      "outputs": [
        {
          "internalType": "bool",
          "name": "",
          "type": "bool"
        }
      ],
      "stateMutability": "view",
      "type": "function"
    },
    {
      "inputs": [],
      "name": "pause",
      "outputs": [],
      "stateMutability": "nonpayable",
      "type": "function"
    },
    {
      "inputs": [],
      "name": "paused",
      "outputs": [
        {
          "internalType": "bool",
          "name": "",
          "type": "bool"
        }
      ],
      "stateMutability": "view",
      "type": "function"
    },
    {
      "inputs": [
        {
          "internalType": "address",
          "name": "beneficiary",
          "type": "address"
        }
      ],
      "name": "release",
      "outputs": [],
      "stateMutability": "nonpayable",
      "type": "function"
    },
    {
      "inputs": [
        {
          "internalType": "bytes32",
          "name": "role",
          "type": "bytes32"
        },
        {
          "internalType": "address",
          "name": "account",
          "type": "address"
        }
      ],
      "name": "renounceRole",
      "outputs": [],
      "stateMutability": "nonpayable",
      "type": "function"
    },
    {
      "inputs": [
        {
          "internalType": "bytes32",
          "name": "role",
          "type": "bytes32"
        },
        {
          "internalType": "address",
          "name": "account",
          "type": "address"
        }
      ],
      "name": "revokeRole",
      "outputs": [],
      "stateMutability": "nonpayable",
      "type": "function"
    },
    {
      "inputs": [
        {
          "internalType": "bytes4",
          "name": "interfaceId",
          "type": "bytes4"
        }
      ],
      "name": "supportsInterface",
      "outputs": [
        {
          "internalType": "bool",
          "name": "",
          "type": "bool"
        }
      ],
      "stateMutability": "view",
      "type": "function"
    },
    {
      "inputs": [],
      "name": "totalAllocated",
      "outputs": [
        {
          "internalType": "uint256",
          "name": "",
          "type": "uint256"
        }
      ],
      "stateMutability": "view",
      "type": "function"
    },
    {
      "inputs": [
        {
          "internalType": "address",
          "name": "beneficiary",
          "type": "address"
        },
        {
          "internalType": "uint64",
          "name": "timestamp",
          "type": "uint64"
        }
      ],
      "name": "totalReleasableAmount",
      "outputs": [
        {
          "internalType": "uint256",
          "name": "",
          "type": "uint256"
        }
      ],
      "stateMutability": "view",
      "type": "function"
    },
    {
      "inputs": [],
      "name": "totalReleased",
      "outputs": [
        {
          "internalType": "uint256",
          "name": "",
          "type": "uint256"
        }
      ],
      "stateMutability": "view",
      "type": "function"
    },
    {
      "inputs": [
        {
          "internalType": "address",
          "name": "beneficiary",
          "type": "address"
        },
        {
          "internalType": "uint64",
          "name": "timestamp",
          "type": "uint64"
        }
      ],
      "name": "totalVestedAmount",
      "outputs": [
        {
          "internalType": "uint256",
          "name": "",
          "type": "uint256"
        }
      ],
      "stateMutability": "view",
      "type": "function"
    },
    {
      "inputs": [],
      "name": "unpause",
      "outputs": [],
      "stateMutability": "nonpayable",
      "type": "function"
    },
    {
      "inputs": [
        {
          "internalType": "address",
          "name": "beneficiary",
          "type": "address"
        },
        {
          "internalType": "uint256",
          "name": "amount",
          "type": "uint256"
        },
        {
          "internalType": "uint256",
          "name": "startDate",
          "type": "uint256"
        },
        {
          "internalType": "uint256",
          "name": "endDate",
          "type": "uint256"
        }
      ],
      "name": "update",
      "outputs": [],
      "stateMutability": "nonpayable",
      "type": "function"
    },
    {
      "inputs": [
        {
          "internalType": "address",
          "name": "beneficiary",
          "type": "address"
        },
        {
          "internalType": "uint256",
          "name": "amount",
          "type": "uint256"
        },
        {
          "internalType": "uint256",
          "name": "startDate",
          "type": "uint256"
        },
        {
          "internalType": "uint256",
          "name": "endDate",
          "type": "uint256"
        }
      ],
      "name": "vest",
      "outputs": [],
      "stateMutability": "nonpayable",
      "type": "function"
    },
    {
      "inputs": [
        {
          "internalType": "address",
          "name": "",
          "type": "address"
        }
      ],
      "name": "vesting",
      "outputs": [
        {
          "internalType": "uint256",
          "name": "startDate",
          "type": "uint256"
        },
        {
          "internalType": "uint256",
          "name": "endDate",
          "type": "uint256"
        },
        {
          "internalType": "uint256",
          "name": "total",
          "type": "uint256"
        },
        {
          "internalType": "uint256",
          "name": "released",
          "type": "uint256"
        }
      ],
      "stateMutability": "view",
      "type": "function"
    }
  ],
  "bytecode": "0x60a06040523480156200001157600080fd5b5060405162001469380380620014698339810160408190526200003491620001f5565b6000805460ff1916815560016002556200004f90826200009a565b6200007b7f65d7a28e3265b37a6474929f336521b332c1681b933f6cb9f3376673440d862a826200009a565b6001600160a01b03821660805262000092620000aa565b505062000234565b620000a6828262000107565b5050565b620000b46200018f565b6000805460ff191660011790557f62e78cea01bee320cd4e420270b5ea74000d11b0c9f74754ebdbfc544b05a258620000ea3390565b6040516001600160a01b03909116815260200160405180910390a1565b60008281526001602090815260408083206001600160a01b038516845290915290205460ff16620000a65760008281526001602081815260408084206001600160a01b0386168086529252808420805460ff19169093179092559051339285917f2f8788117e7eff1d82e926ec794901d17c78024a50270940304540a733656f0d9190a45050565b60005460ff1615620001da5760405162461bcd60e51b815260206004820152601060248201526f14185d5cd8589b194e881c185d5cd95960821b604482015260640160405180910390fd5b565b6001600160a01b0381168114620001f257600080fd5b50565b600080604083850312156200020957600080fd5b82516200021681620001dc565b60208401519092506200022981620001dc565b809150509250929050565b60805161120b6200025e600039600081816102020152818161057601526105ac015261120b6000f3fe608060405234801561001057600080fd5b50600436106101215760003560e01c806371f411ae116100ad578063a217fddf11610071578063a217fddf1461026a578063d2c3aaf214610272578063d547741f14610285578063e33b7de314610298578063e388c423146102a157600080fd5b806371f411ae146101ea57806382bfefc8146101fd5780638456cb591461023c57806391d1485414610244578063939c2fde1461025757600080fd5b80632f2ff15d116100f45780632f2ff15d146101a857806336568abe146101bb5780633f4ba83a146101ce57806345f7f249146101d65780635c975abb146101df57600080fd5b806301799a7c1461012657806301ffc9a71461013b5780631916558714610163578063248a9ca314610176575b600080fd5b610139610134366004610f1d565b6102f8565b005b61014e610149366004610f56565b6103d4565b60405190151581526020015b60405180910390f35b610139610171366004610f80565b61040b565b61019a610184366004610f9b565b6000908152600160208190526040909120015490565b60405190815260200161015a565b6101396101b6366004610fb4565b610616565b6101396101c9366004610fb4565b610641565b6101396106bf565b61019a60045481565b60005460ff1661014e565b61019a6101f8366004610fe0565b6106f4565b6102247f000000000000000000000000000000000000000000000000000000000000000081565b6040516001600160a01b03909116815260200161015a565b6101396107ee565b61014e610252366004610fb4565b610820565b61019a610265366004610fe0565b61084b565b61019a600081565b610139610280366004610f1d565b61089d565b610139610293366004610fb4565b61095c565b61019a60055481565b6102d86102af366004610f80565b600360208190526000918252604090912080546001820154600283015492909301549092919084565b60408051948552602085019390935291830152606082015260800161015a565b7f64ed6499e2f5a7ea55dfd56da361bf9d48064843bb3891c36f1dabd9ba24613561032281610982565b83158061034957506001600160a01b03851660009081526003602052604090206002015415155b156103675760405163574b16a760e11b815260040160405180910390fd5b6040805160808101825284815260208082018581528284018881526000606085018181526001600160a01b038c16825260039485905295812094518555915160018501555160028401559251910155600480548692906103c890849061103a565b90915550505050505050565b60006001600160e01b03198216637965db0b60e01b148061040557506301ffc9a760e01b6001600160e01b03198316145b92915050565b6002805414156104625760405162461bcd60e51b815260206004820152601f60248201527f5265656e7472616e637947756172643a207265656e7472616e742063616c6c0060448201526064015b60405180910390fd5b6002805560005460ff161561048a5760405163574b16a760e11b815260040160405180910390fd5b6000610496824261084b565b9050806104b65760405163574b16a760e11b815260040160405180910390fd5b6001600160a01b038216600090815260036020819052604082200180548392906104e190849061103a565b9250508190555080600560008282546104fa919061103a565b9091555050604080516001600160a01b03848116602483015260448083018590528351808403909101815260649092018352602080830180516001600160e01b03166340c10f1960e01b17905283518085019094526015845274131bddcb5b195d995b081b5a5b9d0819985a5b1959605a1b9084015261059f927f0000000000000000000000000000000000000000000000000000000000000000909116919061098c565b50816001600160a01b03167f00000000000000000000000000000000000000000000000000000000000000006001600160a01b03167f1998e30db89daf293a52c4fc4c4470cd506aafc3f9683e8e5daddad80cd6f4a48360405161060591815260200190565b60405180910390a350506001600255565b6000828152600160208190526040909120015461063281610982565b61063c83836109a5565b505050565b6001600160a01b03811633146106b15760405162461bcd60e51b815260206004820152602f60248201527f416363657373436f6e74726f6c3a2063616e206f6e6c792072656e6f756e636560448201526e103937b632b9903337b91039b2b63360891b6064820152608401610459565b6106bb8282610a10565b5050565b7f65d7a28e3265b37a6474929f336521b332c1681b933f6cb9f3376673440d862a6106e981610982565b6106f1610a77565b50565b6001600160a01b038216600090815260036020526040812060010154158061073d57506001600160a01b03831660009081526003602052604090205467ffffffffffffffff8316105b1561074a57506000610405565b6001600160a01b03831660009081526003602052604090206001015467ffffffffffffffff8316111561079957506001600160a01b038216600090815260036020526040902060020154610405565b6001600160a01b038316600090815260036020526040902080546001820154600290920154918190039167ffffffffffffffff8516919091039082908202816107e4576107e4611052565b0495945050505050565b7f65d7a28e3265b37a6474929f336521b332c1681b933f6cb9f3376673440d862a61081881610982565b6106f1610ac9565b60009182526001602090815260408084206001600160a01b0393909316845291905290205460ff1690565b6000805460ff161561085f57506000610405565b600061086b84846106f4565b6001600160a01b038516600090815260036020819052604090912001549091506108959082611068565b949350505050565b7f64ed6499e2f5a7ea55dfd56da361bf9d48064843bb3891c36f1dabd9ba2461356108c781610982565b6001600160a01b03851660009081526003602052604081206002015460048054919290916108f6908490611068565b90915550506040805160808101825284815260208082018581528284018881526000606085018181526001600160a01b038c16825260039485905295812094518555915160018501555160028401559251910155600480548692906103c890849061103a565b6000828152600160208190526040909120015461097881610982565b61063c8383610a10565b6106f18133610b06565b606061099b8484600085610b6a565b90505b9392505050565b6109af8282610820565b6106bb5760008281526001602081815260408084206001600160a01b0386168086529252808420805460ff19169093179092559051339285917f2f8788117e7eff1d82e926ec794901d17c78024a50270940304540a733656f0d9190a45050565b610a1a8282610820565b156106bb5760008281526001602090815260408083206001600160a01b0385168085529252808320805460ff1916905551339285917ff6391f5c32d9c69d2a47ea670b442974b53935d1edc7fd64eb21e047a839171b9190a45050565b610a7f610c9b565b6000805460ff191690557f5db9ee0a495bf2e6ff9c91a7834c1ba4fdd244a5e8aa4e537bd38aeae4b073aa335b6040516001600160a01b03909116815260200160405180910390a1565b610ad1610ce6565b6000805460ff191660011790557f62e78cea01bee320cd4e420270b5ea74000d11b0c9f74754ebdbfc544b05a258610aac3390565b610b108282610820565b6106bb57610b28816001600160a01b03166014610d2c565b610b33836020610d2c565b604051602001610b449291906110af565b60408051601f198184030181529082905262461bcd60e51b825261045991600401611124565b606082471015610bcb5760405162461bcd60e51b815260206004820152602660248201527f416464726573733a20696e73756666696369656e742062616c616e636520666f6044820152651c8818d85b1b60d21b6064820152608401610459565b6001600160a01b0385163b610c225760405162461bcd60e51b815260206004820152601d60248201527f416464726573733a2063616c6c20746f206e6f6e2d636f6e74726163740000006044820152606401610459565b600080866001600160a01b03168587604051610c3e9190611157565b60006040518083038185875af1925050503d8060008114610c7b576040519150601f19603f3d011682016040523d82523d6000602084013e610c80565b606091505b5091509150610c90828286610ec8565b979650505050505050565b60005460ff16610ce45760405162461bcd60e51b815260206004820152601460248201527314185d5cd8589b194e881b9bdd081c185d5cd95960621b6044820152606401610459565b565b60005460ff1615610ce45760405162461bcd60e51b815260206004820152601060248201526f14185d5cd8589b194e881c185d5cd95960821b6044820152606401610459565b60606000610d3b836002611173565b610d4690600261103a565b67ffffffffffffffff811115610d5e57610d5e611192565b6040519080825280601f01601f191660200182016040528015610d88576020820181803683370190505b509050600360fc1b81600081518110610da357610da36111a8565b60200101906001600160f81b031916908160001a905350600f60fb1b81600181518110610dd257610dd26111a8565b60200101906001600160f81b031916908160001a9053506000610df6846002611173565b610e0190600161103a565b90505b6001811115610e79576f181899199a1a9b1b9c1cb0b131b232b360811b85600f1660108110610e3557610e356111a8565b1a60f81b828281518110610e4b57610e4b6111a8565b60200101906001600160f81b031916908160001a90535060049490941c93610e72816111be565b9050610e04565b50831561099e5760405162461bcd60e51b815260206004820181905260248201527f537472696e67733a20686578206c656e67746820696e73756666696369656e746044820152606401610459565b60608315610ed757508161099e565b825115610ee75782518084602001fd5b8160405162461bcd60e51b81526004016104599190611124565b80356001600160a01b0381168114610f1857600080fd5b919050565b60008060008060808587031215610f3357600080fd5b610f3c85610f01565b966020860135965060408601359560600135945092505050565b600060208284031215610f6857600080fd5b81356001600160e01b03198116811461099e57600080fd5b600060208284031215610f9257600080fd5b61099e82610f01565b600060208284031215610fad57600080fd5b5035919050565b60008060408385031215610fc757600080fd5b82359150610fd760208401610f01565b90509250929050565b60008060408385031215610ff357600080fd5b610ffc83610f01565b9150602083013567ffffffffffffffff8116811461101957600080fd5b809150509250929050565b634e487b7160e01b600052601160045260246000fd5b6000821982111561104d5761104d611024565b500190565b634e487b7160e01b600052601260045260246000fd5b60008282101561107a5761107a611024565b500390565b60005b8381101561109a578181015183820152602001611082565b838111156110a9576000848401525b50505050565b7f416363657373436f6e74726f6c3a206163636f756e74200000000000000000008152600083516110e781601785016020880161107f565b7001034b99036b4b9b9b4b733903937b6329607d1b601791840191820152835161111881602884016020880161107f565b01602801949350505050565b602081526000825180602084015261114381604085016020870161107f565b601f01601f19169190910160400192915050565b6000825161116981846020870161107f565b9190910192915050565b600081600019048311821515161561118d5761118d611024565b500290565b634e487b7160e01b600052604160045260246000fd5b634e487b7160e01b600052603260045260246000fd5b6000816111cd576111cd611024565b50600019019056fea2646970667358221220f2f61eedcdb874b0366187d567686ccafd50ad32bf0d2e680f57eb49ea22112664736f6c63430008090033",
  "linkReferences": {},
  "deployedLinkReferences": {}
}