{
  "_format": "hh-sol-artifact-1",
  "contractName": "Treasury",
  "sourceName": "contracts/Treasury.sol",
  "abi": [
    {
      "inputs": [
        {
          "internalType": "address",
          "name": "admin",
          "type": "address"
        }
      ],
      "stateMutability": "nonpayable",
      "type": "constructor"
    },
    {
      "inputs": [],
      "name": "InvalidCall",
      "type": "error"
    },
    {
      "anonymous": false,
      "inputs": [
        {
          "indexed": false,
          "internalType": "uint256",
          "name": "id",
          "type": "uint256"
        }
      ],
      "name": "FundsApproved",
      "type": "event"
    },
    {
      "anonymous": false,
      "inputs": [
        {
          "indexed": false,
          "internalType": "address",
          "name": "approver",
          "type": "address"
        },
        {
          "indexed": false,
          "internalType": "uint256",
          "name": "id",
          "type": "uint256"
        }
      ],
      "name": "FundsApprovedFrom",
      "type": "event"
    },
    {
      "anonymous": false,
      "inputs": [
        {
          "indexed": false,
          "internalType": "address",
          "name": "sender",
          "type": "address"
        },
        {
          "indexed": false,
          "internalType": "uint256",
          "name": "amount",
          "type": "uint256"
        }
      ],
      "name": "FundsReceived",
      "type": "event"
    },
    {
      "anonymous": false,
      "inputs": [
        {
          "indexed": false,
          "internalType": "uint256",
          "name": "id",
          "type": "uint256"
        }
      ],
      "name": "FundsRequested",
      "type": "event"
    },
    {
      "anonymous": false,
      "inputs": [
        {
          "indexed": false,
          "internalType": "uint256",
          "name": "id",
          "type": "uint256"
        }
      ],
      "name": "FundsWithdrawn",
      "type": "event"
    },
    {
      "anonymous": false,
      "inputs": [
        {
          "indexed": false,
          "internalType": "address",
          "name": "account",
          "type": "address"
        }
      ],
      "name": "Paused",
      "type": "event"
    },
    {
      "anonymous": false,
      "inputs": [
        {
          "indexed": false,
          "internalType": "uint256",
          "name": "id",
          "type": "uint256"
        }
      ],
      "name": "RequestCancelled",
      "type": "event"
    },
    {
      "anonymous": false,
      "inputs": [
        {
          "indexed": true,
          "internalType": "bytes32",
          "name": "role",
          "type": "bytes32"
        },
        {
          "indexed": true,
          "internalType": "bytes32",
          "name": "previousAdminRole",
          "type": "bytes32"
        },
        {
          "indexed": true,
          "internalType": "bytes32",
          "name": "newAdminRole",
          "type": "bytes32"
        }
      ],
      "name": "RoleAdminChanged",
      "type": "event"
    },
    {
      "anonymous": false,
      "inputs": [
        {
          "indexed": true,
          "internalType": "bytes32",
          "name": "role",
          "type": "bytes32"
        },
        {
          "indexed": true,
          "internalType": "address",
          "name": "account",
          "type": "address"
        },
        {
          "indexed": true,
          "internalType": "address",
          "name": "sender",
          "type": "address"
        }
      ],
      "name": "RoleGranted",
      "type": "event"
    },
    {
      "anonymous": false,
      "inputs": [
        {
          "indexed": true,
          "internalType": "bytes32",
          "name": "role",
          "type": "bytes32"
        },
        {
          "indexed": true,
          "internalType": "address",
          "name": "account",
          "type": "address"
        },
        {
          "indexed": true,
          "internalType": "address",
          "name": "sender",
          "type": "address"
        }
      ],
      "name": "RoleRevoked",
      "type": "event"
    },
    {
      "anonymous": false,
      "inputs": [
        {
          "indexed": false,
          "internalType": "address",
          "name": "account",
          "type": "address"
        }
      ],
      "name": "Unpaused",
      "type": "event"
    },
    {
      "inputs": [],
      "name": "DEFAULT_ADMIN_ROLE",
      "outputs": [
        {
          "internalType": "bytes32",
          "name": "",
          "type": "bytes32"
        }
      ],
      "stateMutability": "view",
      "type": "function"
    },
    {
      "inputs": [],
      "name": "MINIMUM_APPROVALS",
      "outputs": [
        {
          "internalType": "uint256",
          "name": "",
          "type": "uint256"
        }
      ],
      "stateMutability": "view",
      "type": "function"
    },
    {
      "inputs": [],
      "name": "MINIMUM_REQUEST",
      "outputs": [
        {
          "internalType": "uint256",
          "name": "",
          "type": "uint256"
        }
      ],
      "stateMutability": "view",
      "type": "function"
    },
    {
      "inputs": [],
      "name": "TIER_APPROVALS",
      "outputs": [
        {
          "internalType": "uint256",
          "name": "",
          "type": "uint256"
        }
      ],
      "stateMutability": "view",
      "type": "function"
    },
    {
      "inputs": [],
      "name": "TIER_COOLDOWN",
      "outputs": [
        {
          "internalType": "uint256",
          "name": "",
          "type": "uint256"
        }
      ],
      "stateMutability": "view",
      "type": "function"
    },
    {
      "inputs": [],
      "name": "TIER_RATE",
      "outputs": [
        {
          "internalType": "uint256",
          "name": "",
          "type": "uint256"
        }
      ],
      "stateMutability": "view",
      "type": "function"
    },
    {
      "inputs": [
        {
          "internalType": "uint256",
          "name": "id",
          "type": "uint256"
        }
      ],
      "name": "approve",
      "outputs": [],
      "stateMutability": "nonpayable",
      "type": "function"
    },
    {
      "inputs": [
        {
          "internalType": "uint256",
          "name": "",
          "type": "uint256"
        },
        {
          "internalType": "address",
          "name": "",
          "type": "address"
        }
      ],
      "name": "approved",
      "outputs": [
        {
          "internalType": "bool",
          "name": "",
          "type": "bool"
        }
      ],
      "stateMutability": "view",
      "type": "function"
    },
    {
      "inputs": [
        {
          "internalType": "uint256",
          "name": "id",
          "type": "uint256"
        }
      ],
      "name": "cancel",
      "outputs": [],
      "stateMutability": "nonpayable",
      "type": "function"
    },
    {
      "inputs": [
        {
          "internalType": "bytes32",
          "name": "role",
          "type": "bytes32"
        }
      ],
      "name": "getRoleAdmin",
      "outputs": [
        {
          "internalType": "bytes32",
          "name": "",
          "type": "bytes32"
        }
      ],
      "stateMutability": "view",
      "type": "function"
    },
    {
      "inputs": [
        {
          "internalType": "bytes32",
          "name": "role",
          "type": "bytes32"
        },
        {
          "internalType": "uint256",
          "name": "index",
          "type": "uint256"
        }
      ],
      "name": "getRoleMember",
      "outputs": [
        {
          "internalType": "address",
          "name": "",
          "type": "address"
        }
      ],
      "stateMutability": "view",
      "type": "function"
    },
    {
      "inputs": [
        {
          "internalType": "bytes32",
          "name": "role",
          "type": "bytes32"
        }
      ],
      "name": "getRoleMemberCount",
      "outputs": [
        {
          "internalType": "uint256",
          "name": "",
          "type": "uint256"
        }
      ],
      "stateMutability": "view",
      "type": "function"
    },
    {
      "inputs": [
        {
          "internalType": "bytes32",
          "name": "role",
          "type": "bytes32"
        },
        {
          "internalType": "address",
          "name": "account",
          "type": "address"
        }
      ],
      "name": "grantRole",
      "outputs": [],
      "stateMutability": "nonpayable",
      "type": "function"
    },
    {
      "inputs": [
        {
          "internalType": "bytes32",
          "name": "role",
          "type": "bytes32"
        },
        {
          "internalType": "address",
          "name": "account",
          "type": "address"
        }
      ],
      "name": "hasRole",
      "outputs": [
        {
          "internalType": "bool",
          "name": "",
          "type": "bool"
        }
      ],
      "stateMutability": "view",
      "type": "function"
    },
    {
      "inputs": [
        {
          "internalType": "uint256",
          "name": "id",
          "type": "uint256"
        }
      ],
      "name": "isApproved",
      "outputs": [
        {
          "internalType": "bool",
          "name": "",
          "type": "bool"
        }
      ],
      "stateMutability": "view",
      "type": "function"
    },
    {
      "inputs": [
        {
          "internalType": "uint256",
          "name": "",
          "type": "uint256"
        }
      ],
      "name": "next",
      "outputs": [
        {
          "internalType": "uint256",
          "name": "",
          "type": "uint256"
        }
      ],
      "stateMutability": "view",
      "type": "function"
    },
    {
      "inputs": [],
      "name": "pause",
      "outputs": [],
      "stateMutability": "nonpayable",
      "type": "function"
    },
    {
      "inputs": [],
      "name": "paused",
      "outputs": [
        {
          "internalType": "bool",
          "name": "",
          "type": "bool"
        }
      ],
      "stateMutability": "view",
      "type": "function"
    },
    {
      "inputs": [
        {
          "internalType": "bytes32",
          "name": "role",
          "type": "bytes32"
        },
        {
          "internalType": "address",
          "name": "account",
          "type": "address"
        }
      ],
      "name": "renounceRole",
      "outputs": [],
      "stateMutability": "nonpayable",
      "type": "function"
    },
    {
      "inputs": [
        {
          "internalType": "uint256",
          "name": "id",
          "type": "uint256"
        },
        {
          "internalType": "address",
          "name": "beneficiary",
          "type": "address"
        },
        {
          "internalType": "uint256",
          "name": "amount",
          "type": "uint256"
        }
      ],
      "name": "request",
      "outputs": [],
      "stateMutability": "nonpayable",
      "type": "function"
    },
    {
      "inputs": [
        {
          "internalType": "bytes32",
          "name": "role",
          "type": "bytes32"
        },
        {
          "internalType": "address",
          "name": "account",
          "type": "address"
        }
      ],
      "name": "revokeRole",
      "outputs": [],
      "stateMutability": "nonpayable",
      "type": "function"
    },
    {
      "inputs": [
        {
          "internalType": "bytes4",
          "name": "interfaceId",
          "type": "bytes4"
        }
      ],
      "name": "supportsInterface",
      "outputs": [
        {
          "internalType": "bool",
          "name": "",
          "type": "bool"
        }
      ],
      "stateMutability": "view",
      "type": "function"
    },
    {
      "inputs": [
        {
          "components": [
            {
              "internalType": "uint8",
              "name": "tier",
              "type": "uint8"
            },
            {
              "internalType": "address",
              "name": "beneficiary",
              "type": "address"
            },
            {
              "internalType": "uint256",
              "name": "amount",
              "type": "uint256"
            },
            {
              "internalType": "string",
              "name": "uri",
              "type": "string"
            },
            {
              "internalType": "uint256",
              "name": "approvals",
              "type": "uint256"
            },
            {
              "internalType": "bool",
              "name": "withdrawn",
              "type": "bool"
            },
            {
              "internalType": "bool",
              "name": "cancelled",
              "type": "bool"
            }
          ],
          "internalType": "struct Treasury.TX",
          "name": "transaction",
          "type": "tuple"
        }
      ],
      "name": "tierInfo",
      "outputs": [
        {
          "internalType": "uint256",
          "name": "tier",
          "type": "uint256"
        },
        {
          "internalType": "uint256",
          "name": "required",
          "type": "uint256"
        },
        {
          "internalType": "uint256",
          "name": "cooldown",
          "type": "uint256"
        }
      ],
      "stateMutability": "pure",
      "type": "function"
    },
    {
      "inputs": [
        {
          "internalType": "uint256",
          "name": "amount",
          "type": "uint256"
        }
      ],
      "name": "tierInfoByAmount",
      "outputs": [
        {
          "internalType": "uint256",
          "name": "tier",
          "type": "uint256"
        },
        {
          "internalType": "uint256",
          "name": "required",
          "type": "uint256"
        },
        {
          "internalType": "uint256",
          "name": "cooldown",
          "type": "uint256"
        }
      ],
      "stateMutability": "pure",
      "type": "function"
    },
    {
      "inputs": [
        {
          "internalType": "uint256",
          "name": "",
          "type": "uint256"
        }
      ],
      "name": "txs",
      "outputs": [
        {
          "internalType": "uint8",
          "name": "tier",
          "type": "uint8"
        },
        {
          "internalType": "address",
          "name": "beneficiary",
          "type": "address"
        },
        {
          "internalType": "uint256",
          "name": "amount",
          "type": "uint256"
        },
        {
          "internalType": "string",
          "name": "uri",
          "type": "string"
        },
        {
          "internalType": "uint256",
          "name": "approvals",
          "type": "uint256"
        },
        {
          "internalType": "bool",
          "name": "withdrawn",
          "type": "bool"
        },
        {
          "internalType": "bool",
          "name": "cancelled",
          "type": "bool"
        }
      ],
      "stateMutability": "view",
      "type": "function"
    },
    {
      "inputs": [],
      "name": "unpause",
      "outputs": [],
      "stateMutability": "nonpayable",
      "type": "function"
    },
    {
      "inputs": [
        {
          "internalType": "uint256",
          "name": "id",
          "type": "uint256"
        }
      ],
      "name": "withdraw",
      "outputs": [],
      "stateMutability": "nonpayable",
      "type": "function"
    },
    {
      "stateMutability": "payable",
      "type": "receive"
    }
  ],
  "bytecode": "0x60806040523480156200001157600080fd5b5060405162001ed938038062001ed98339810160408190526200003491620001cf565b6000805460ff1916815560016003556200004f908262000082565b6200007b7f65d7a28e3265b37a6474929f336521b332c1681b933f6cb9f3376673440d862a8262000082565b5062000201565b6200008e828262000092565b5050565b620000a98282620000d560201b6200108b1760201c565b6000828152600260209081526040909120620000d0918390620010f66200015d821b17901c565b505050565b60008281526001602090815260408083206001600160a01b038516845290915290205460ff166200008e5760008281526001602081815260408084206001600160a01b0386168086529252808420805460ff19169093179092559051339285917f2f8788117e7eff1d82e926ec794901d17c78024a50270940304540a733656f0d9190a45050565b600062000174836001600160a01b0384166200017d565b90505b92915050565b6000818152600183016020526040812054620001c65750815460018181018455600084815260208082209093018490558454848252828601909352604090209190915562000177565b50600062000177565b600060208284031215620001e257600080fd5b81516001600160a01b0381168114620001fa57600080fd5b9392505050565b611cc880620002116000396000f3fe6080604052600436106101a05760003560e01c80637910867b116100ec578063b759f9541161008a578063d367dbcc11610064578063d367dbcc1461050d578063d547741f14610522578063edd004e514610542578063f5715d561461056f57600080fd5b8063b759f954146104b1578063c7a7451b146104d1578063ca15c873146104ed57600080fd5b80639010d07c116100c65780639010d07c1461042d57806391d14854146104655780639381ba1614610485578063a217fddf1461049c57600080fd5b80637910867b146103bd5780638253951a146103dd5780638456cb591461041857600080fd5b806340e58ee511610159578063512cd96311610133578063512cd9631461032a57806355bf21db146103655780635c975abb14610385578063627613b71461039d57600080fd5b806340e58ee5146102d957806343ccdbe0146102f95780634650c17f1461030e57600080fd5b806301ffc9a7146101ee578063248a9ca3146102235780632e1a7d4d146102625780632f2ff15d1461028457806336568abe146102a45780633f4ba83a146102c457600080fd5b366101e9577f8e47b87b0ef542cdfa1659c551d88bad38aa7f452d2bbb349ab7530dfec8be8f33604080516001600160a01b0390921682523460208301520160405180910390a1005b600080fd5b3480156101fa57600080fd5b5061020e6102093660046117c5565b6105a2565b60405190151581526020015b60405180910390f35b34801561022f57600080fd5b5061025461023e3660046117ef565b6000908152600160208190526040909120015490565b60405190815260200161021a565b34801561026e57600080fd5b5061028261027d3660046117ef565b6105cd565b005b34801561029057600080fd5b5061028261029f366004611824565b61071f565b3480156102b057600080fd5b506102826102bf366004611824565b61074a565b3480156102d057600080fd5b506102826107c8565b3480156102e557600080fd5b506102826102f43660046117ef565b6107fd565b34801561030557600080fd5b50610254600281565b34801561031a57600080fd5b50610254670de0b6b3a764000081565b34801561033657600080fd5b5061034a61034536600461193d565b610a1d565b6040805193845260208401929092529082015260600161021a565b34801561037157600080fd5b50610282610380366004611a02565b610a3d565b34801561039157600080fd5b5060005460ff1661020e565b3480156103a957600080fd5b5061034a6103b83660046117ef565b610c66565b3480156103c957600080fd5b5061020e6103d83660046117ef565b610ccc565b3480156103e957600080fd5b5061020e6103f8366004611824565b600660209081526000928352604080842090915290825290205460ff1681565b34801561042457600080fd5b50610282610d4d565b34801561043957600080fd5b5061044d610448366004611a37565b610d7f565b6040516001600160a01b03909116815260200161021a565b34801561047157600080fd5b5061020e610480366004611824565b610d9e565b34801561049157600080fd5b506102546201518081565b3480156104a857600080fd5b50610254600081565b3480156104bd57600080fd5b506102826104cc3660046117ef565b610dc9565b3480156104dd57600080fd5b5061025467016345785d8a000081565b3480156104f957600080fd5b506102546105083660046117ef565b610f77565b34801561051957600080fd5b50610254600181565b34801561052e57600080fd5b5061028261053d366004611824565b610f8e565b34801561054e57600080fd5b5061025461055d3660046117ef565b60056020526000908152604090205481565b34801561057b57600080fd5b5061058f61058a3660046117ef565b610fb4565b60405161021a9796959493929190611ab5565b60006001600160e01b03198216635a05180f60e01b14806105c757506105c78261110b565b92915050565b600260035414156106255760405162461bcd60e51b815260206004820152601f60248201527f5265656e7472616e637947756172643a207265656e7472616e742063616c6c0060448201526064015b60405180910390fd5b6002600355600081815260046020526040902060010154158061065a57506000818152600460208190526040909120015460ff165b80610675575060008181526004602052604090206001015447105b80610686575061068481610ccc565b155b156106a45760405163574b16a760e11b815260040160405180910390fd5b6000818152600460208190526040909120908101805460ff1916600190811790915581549101546106e4916001600160a01b036101009091041690611140565b6040518181527f4a37b25aab49761ecf63117fe82b98d750917451133cf797507bc9fb5b96044a9060200160405180910390a1506001600355565b6000828152600160208190526040909120015461073b81611259565b6107458383611263565b505050565b6001600160a01b03811633146107ba5760405162461bcd60e51b815260206004820152602f60248201527f416363657373436f6e74726f6c3a2063616e206f6e6c792072656e6f756e636560448201526e103937b632b9903337b91039b2b63360891b606482015260840161061c565b6107c48282611285565b5050565b7f65d7a28e3265b37a6474929f336521b332c1681b933f6cb9f3376673440d862a6107f281611259565b6107fa6112a7565b50565b7f61a3517f153a09154844ed8be639dabc6e78dc22315c2d9a91f7eddf9398c00261082781611259565b60005460ff16806108475750600082815260046020526040902060010154155b80610869575060008281526004602081905260409091200154610100900460ff165b80610884575060008281526004602052604090206003015415155b156108a25760405163574b16a760e11b815260040160405180910390fd5b6000828152600460208181526040808420928301805461010061ff00199091168117909155815160e081018352845460ff81168252919091046001600160a01b0316928101929092526001830154908201526002820180546109be9391606084019161090d90611b06565b80601f016020809104026020016040519081016040528092919081815260200182805461093990611b06565b80156109865780601f1061095b57610100808354040283529160200191610986565b820191906000526020600020905b81548152906001019060200180831161096957829003601f168201915b50505091835250506003820154602082015260049091015460ff80821615156040840152610100909104161515606090910152610a1d565b50506000818152600560205260409081902067ffffffffffffffff42169055519091507fee243f878b7fc2f54e934ca33783d4395d42bc07612e2bd4b8e0e178639f7a2890610a109085815260200190565b60405180910390a1505050565b6000806000610a2f8460400151610c66565b9250925092505b9193909250565b7f61a3517f153a09154844ed8be639dabc6e78dc22315c2d9a91f7eddf9398c002610a6781611259565b60005460ff1680610a7757504782115b80610a92575060008481526004602052604090206001015415155b80610aa457506001600160a01b038316155b80610ab757506001600160a01b03831630145b15610ad55760405163574b16a760e11b815260040160405180910390fd5b6000848152600460209081526040808320815160e081018352815460ff8116825261010090046001600160a01b0316938101939093526001810154918301919091526002810180548493610b36939092909160608401919061090d90611b06565b92505091508160001415610b5d5760405163574b16a760e11b815260040160405180910390fd5b600082815260056020526040902054429067ffffffffffffffff82161015610b985760405163574b16a760e11b815260040160405180910390fd5b600087815260046020908152604091829020600181018890558054610100600160a81b0319166101006001600160a01b038b160217905590518881527fd5e85995d9bdcdafb72531ec59faef29167c16780583ca2068587fe896170c47910160405180910390a1610c297f408a36151f841709116a4e8aca4e0202874f7f54687dcb863b1ea4672dc9d8cf33610d9e565b15610c3757610c3787610dc9565b610c4b8267ffffffffffffffff8316611b57565b60009384526005602052604090932092909255505050505050565b600080600067016345785d8a0000841015610c8957506000915081905080610a36565b610c9b670de0b6b3a764000085611b6f565b9250610caa6201518084611b91565b9050610cb7600184611b91565b91506002821015610a36579193600293509050565b6000818152600460209081526040808320815160e081018352815460ff8116825261010090046001600160a01b0316938101939093526001810154918301919091526002810180548493610d2d939092909160608401919061090d90611b06565b506000948552600460205260409094206003015493909310159392505050565b7f65d7a28e3265b37a6474929f336521b332c1681b933f6cb9f3376673440d862a610d7781611259565b6107fa6112f9565b6000828152600260205260408120610d979083611336565b9392505050565b60009182526001602090815260408084206001600160a01b0393909316845291905290205460ff1690565b7f408a36151f841709116a4e8aca4e0202874f7f54687dcb863b1ea4672dc9d8cf610df381611259565b60005460ff1680610e135750600082815260046020526040902060010154155b80610e35575060008281526004602081905260409091200154610100900460ff165b80610e5257506000828152600460208190526040909120015460ff165b15610e705760405163574b16a760e11b815260040160405180910390fd5b60008281526006602090815260408083203380855292529091205460ff1615610eac5760405163574b16a760e11b815260040160405180910390fd5b6000838152600460205260408120600301805460019290610ece908490611b57565b909155505060008381526006602090815260408083206001600160a01b03851680855290835292819020805460ff1916600117905580519283529082018590527fe20a7ea26b59378abc063a744c34a1157ff608273f0e1f0a4950422d7933dbf8910160405180910390a1610f4283610ccc565b15610745576040518381527f0649d8e40524587f74eb95a2bc1f96a325cbeb7657bf29340a3c7672c11d874690602001610a10565b60008181526002602052604081206105c790611342565b60008281526001602081905260409091200154610faa81611259565b6107458383611285565b60046020526000908152604090208054600182015460028301805460ff8416946101009094046001600160a01b0316939190610fef90611b06565b80601f016020809104026020016040519081016040528092919081815260200182805461101b90611b06565b80156110685780601f1061103d57610100808354040283529160200191611068565b820191906000526020600020905b81548152906001019060200180831161104b57829003601f168201915b50505050600383015460049093015491929160ff80821692506101009091041687565b6110958282610d9e565b6107c45760008281526001602081815260408084206001600160a01b0386168086529252808420805460ff19169093179092559051339285917f2f8788117e7eff1d82e926ec794901d17c78024a50270940304540a733656f0d9190a45050565b6000610d97836001600160a01b03841661134c565b60006001600160e01b03198216637965db0b60e01b14806105c757506301ffc9a760e01b6001600160e01b03198316146105c7565b804710156111905760405162461bcd60e51b815260206004820152601d60248201527f416464726573733a20696e73756666696369656e742062616c616e6365000000604482015260640161061c565b6000826001600160a01b03168260405160006040518083038185875af1925050503d80600081146111dd576040519150601f19603f3d011682016040523d82523d6000602084013e6111e2565b606091505b50509050806107455760405162461bcd60e51b815260206004820152603a60248201527f416464726573733a20756e61626c6520746f2073656e642076616c75652c207260448201527f6563697069656e74206d61792068617665207265766572746564000000000000606482015260840161061c565b6107fa813361139b565b61126d828261108b565b600082815260026020526040902061074590826110f6565b61128f82826113ff565b60008281526002602052604090206107459082611466565b6112af61147b565b6000805460ff191690557f5db9ee0a495bf2e6ff9c91a7834c1ba4fdd244a5e8aa4e537bd38aeae4b073aa335b6040516001600160a01b03909116815260200160405180910390a1565b6113016114c6565b6000805460ff191660011790557f62e78cea01bee320cd4e420270b5ea74000d11b0c9f74754ebdbfc544b05a2586112dc3390565b6000610d97838361150c565b60006105c7825490565b6000818152600183016020526040812054611393575081546001818101845560008481526020808220909301849055845484825282860190935260409020919091556105c7565b5060006105c7565b6113a58282610d9e565b6107c4576113bd816001600160a01b03166014611536565b6113c8836020611536565b6040516020016113d9929190611bb0565b60408051601f198184030181529082905262461bcd60e51b825261061c91600401611c25565b6114098282610d9e565b156107c45760008281526001602090815260408083206001600160a01b0385168085529252808320805460ff1916905551339285917ff6391f5c32d9c69d2a47ea670b442974b53935d1edc7fd64eb21e047a839171b9190a45050565b6000610d97836001600160a01b0384166116d2565b60005460ff166114c45760405162461bcd60e51b815260206004820152601460248201527314185d5cd8589b194e881b9bdd081c185d5cd95960621b604482015260640161061c565b565b60005460ff16156114c45760405162461bcd60e51b815260206004820152601060248201526f14185d5cd8589b194e881c185d5cd95960821b604482015260640161061c565b600082600001828154811061152357611523611c38565b9060005260206000200154905092915050565b60606000611545836002611b91565b611550906002611b57565b67ffffffffffffffff81111561156857611568611850565b6040519080825280601f01601f191660200182016040528015611592576020820181803683370190505b509050600360fc1b816000815181106115ad576115ad611c38565b60200101906001600160f81b031916908160001a905350600f60fb1b816001815181106115dc576115dc611c38565b60200101906001600160f81b031916908160001a9053506000611600846002611b91565b61160b906001611b57565b90505b6001811115611683576f181899199a1a9b1b9c1cb0b131b232b360811b85600f166010811061163f5761163f611c38565b1a60f81b82828151811061165557611655611c38565b60200101906001600160f81b031916908160001a90535060049490941c9361167c81611c4e565b905061160e565b508315610d975760405162461bcd60e51b815260206004820181905260248201527f537472696e67733a20686578206c656e67746820696e73756666696369656e74604482015260640161061c565b600081815260018301602052604081205480156117bb5760006116f6600183611c65565b855490915060009061170a90600190611c65565b905081811461176f57600086600001828154811061172a5761172a611c38565b906000526020600020015490508087600001848154811061174d5761174d611c38565b6000918252602080832090910192909255918252600188019052604090208390555b855486908061178057611780611c7c565b6001900381819060005260206000200160009055905585600101600086815260200190815260200160002060009055600193505050506105c7565b60009150506105c7565b6000602082840312156117d757600080fd5b81356001600160e01b031981168114610d9757600080fd5b60006020828403121561180157600080fd5b5035919050565b80356001600160a01b038116811461181f57600080fd5b919050565b6000806040838503121561183757600080fd5b8235915061184760208401611808565b90509250929050565b634e487b7160e01b600052604160045260246000fd5b60405160e0810167ffffffffffffffff8111828210171561188957611889611850565b60405290565b803560ff8116811461181f57600080fd5b600082601f8301126118b157600080fd5b813567ffffffffffffffff808211156118cc576118cc611850565b604051601f8301601f19908116603f011681019082821181831017156118f4576118f4611850565b8160405283815286602085880101111561190d57600080fd5b836020870160208301376000602085830101528094505050505092915050565b8035801515811461181f57600080fd5b60006020828403121561194f57600080fd5b813567ffffffffffffffff8082111561196757600080fd5b9083019060e0828603121561197b57600080fd5b611983611866565b61198c8361188f565b815261199a60208401611808565b6020820152604083013560408201526060830135828111156119bb57600080fd5b6119c7878286016118a0565b606083015250608083013560808201526119e360a0840161192d565b60a08201526119f460c0840161192d565b60c082015295945050505050565b600080600060608486031215611a1757600080fd5b83359250611a2760208501611808565b9150604084013590509250925092565b60008060408385031215611a4a57600080fd5b50508035926020909101359150565b60005b83811015611a74578181015183820152602001611a5c565b83811115611a83576000848401525b50505050565b60008151808452611aa1816020860160208601611a59565b601f01601f19169290920160200192915050565b60ff8816815260018060a01b038716602082015285604082015260e060608201526000611ae560e0830187611a89565b60808301959095525091151560a0830152151560c090910152949350505050565b600181811c90821680611b1a57607f821691505b60208210811415611b3b57634e487b7160e01b600052602260045260246000fd5b50919050565b634e487b7160e01b600052601160045260246000fd5b60008219821115611b6a57611b6a611b41565b500190565b600082611b8c57634e487b7160e01b600052601260045260246000fd5b500490565b6000816000190483118215151615611bab57611bab611b41565b500290565b7f416363657373436f6e74726f6c3a206163636f756e7420000000000000000000815260008351611be8816017850160208801611a59565b7001034b99036b4b9b9b4b733903937b6329607d1b6017918401918201528351611c19816028840160208801611a59565b01602801949350505050565b602081526000610d976020830184611a89565b634e487b7160e01b600052603260045260246000fd5b600081611c5d57611c5d611b41565b506000190190565b600082821015611c7757611c77611b41565b500390565b634e487b7160e01b600052603160045260246000fdfea264697066735822122052bb865347e34e3b474f77e9c29464abdf5a9ff264222f1a575fdc8dc34c64cb64736f6c63430008090033",
  "linkReferences": {},
  "deployedLinkReferences": {}
}