{
  "_format": "hh-sol-artifact-1",
  "contractName": "Token",
  "sourceName": "contracts/Token.sol",
  "abi": [
    {
      "inputs": [
        {
          "internalType": "address",
          "name": "admin",
          "type": "address"
        }
      ],
      "stateMutability": "nonpayable",
      "type": "constructor"
    },
    {
      "inputs": [],
      "name": "InvalidCall",
      "type": "error"
    },
    {
      "anonymous": false,
      "inputs": [
        {
          "indexed": true,
          "internalType": "address",
          "name": "owner",
          "type": "address"
        },
        {
          "indexed": true,
          "internalType": "address",
          "name": "spender",
          "type": "address"
        },
        {
          "indexed": false,
          "internalType": "uint256",
          "name": "value",
          "type": "uint256"
        }
      ],
      "name": "Approval",
      "type": "event"
    },
    {
      "anonymous": false,
      "inputs": [
        {
          "indexed": false,
          "internalType": "address",
          "name": "account",
          "type": "address"
        }
      ],
      "name": "Paused",
      "type": "event"
    },
    {
      "anonymous": false,
      "inputs": [
        {
          "indexed": true,
          "internalType": "bytes32",
          "name": "role",
          "type": "bytes32"
        },
        {
          "indexed": true,
          "internalType": "bytes32",
          "name": "previousAdminRole",
          "type": "bytes32"
        },
        {
          "indexed": true,
          "internalType": "bytes32",
          "name": "newAdminRole",
          "type": "bytes32"
        }
      ],
      "name": "RoleAdminChanged",
      "type": "event"
    },
    {
      "anonymous": false,
      "inputs": [
        {
          "indexed": true,
          "internalType": "bytes32",
          "name": "role",
          "type": "bytes32"
        },
        {
          "indexed": true,
          "internalType": "address",
          "name": "account",
          "type": "address"
        },
        {
          "indexed": true,
          "internalType": "address",
          "name": "sender",
          "type": "address"
        }
      ],
      "name": "RoleGranted",
      "type": "event"
    },
    {
      "anonymous": false,
      "inputs": [
        {
          "indexed": true,
          "internalType": "bytes32",
          "name": "role",
          "type": "bytes32"
        },
        {
          "indexed": true,
          "internalType": "address",
          "name": "account",
          "type": "address"
        },
        {
          "indexed": true,
          "internalType": "address",
          "name": "sender",
          "type": "address"
        }
      ],
      "name": "RoleRevoked",
      "type": "event"
    },
    {
      "anonymous": false,
      "inputs": [
        {
          "indexed": true,
          "internalType": "address",
          "name": "from",
          "type": "address"
        },
        {
          "indexed": true,
          "internalType": "address",
          "name": "to",
          "type": "address"
        },
        {
          "indexed": false,
          "internalType": "uint256",
          "name": "value",
          "type": "uint256"
        }
      ],
      "name": "Transfer",
      "type": "event"
    },
    {
      "anonymous": false,
      "inputs": [
        {
          "indexed": false,
          "internalType": "address",
          "name": "account",
          "type": "address"
        }
      ],
      "name": "Unpaused",
      "type": "event"
    },
    {
      "inputs": [],
      "name": "DEFAULT_ADMIN_ROLE",
      "outputs": [
        {
          "internalType": "bytes32",
          "name": "",
          "type": "bytes32"
        }
      ],
      "stateMutability": "view",
      "type": "function"
    },
    {
      "inputs": [
        {
          "internalType": "address",
          "name": "owner",
          "type": "address"
        },
        {
          "internalType": "address",
          "name": "spender",
          "type": "address"
        }
      ],
      "name": "allowance",
      "outputs": [
        {
          "internalType": "uint256",
          "name": "",
          "type": "uint256"
        }
      ],
      "stateMutability": "view",
      "type": "function"
    },
    {
      "inputs": [
        {
          "internalType": "address",
          "name": "spender",
          "type": "address"
        },
        {
          "internalType": "uint256",
          "name": "amount",
          "type": "uint256"
        }
      ],
      "name": "approve",
      "outputs": [
        {
          "internalType": "bool",
          "name": "",
          "type": "bool"
        }
      ],
      "stateMutability": "nonpayable",
      "type": "function"
    },
    {
      "inputs": [
        {
          "internalType": "address",
          "name": "account",
          "type": "address"
        }
      ],
      "name": "balanceOf",
      "outputs": [
        {
          "internalType": "uint256",
          "name": "",
          "type": "uint256"
        }
      ],
      "stateMutability": "view",
      "type": "function"
    },
    {
      "inputs": [],
      "name": "cap",
      "outputs": [
        {
          "internalType": "uint256",
          "name": "",
          "type": "uint256"
        }
      ],
      "stateMutability": "view",
      "type": "function"
    },
    {
      "inputs": [],
      "name": "decimals",
      "outputs": [
        {
          "internalType": "uint8",
          "name": "",
          "type": "uint8"
        }
      ],
      "stateMutability": "view",
      "type": "function"
    },
    {
      "inputs": [
        {
          "internalType": "address",
          "name": "spender",
          "type": "address"
        },
        {
          "internalType": "uint256",
          "name": "subtractedValue",
          "type": "uint256"
        }
      ],
      "name": "decreaseAllowance",
      "outputs": [
        {
          "internalType": "bool",
          "name": "",
          "type": "bool"
        }
      ],
      "stateMutability": "nonpayable",
      "type": "function"
    },
    {
      "inputs": [
        {
          "internalType": "bytes32",
          "name": "role",
          "type": "bytes32"
        }
      ],
      "name": "getRoleAdmin",
      "outputs": [
        {
          "internalType": "bytes32",
          "name": "",
          "type": "bytes32"
        }
      ],
      "stateMutability": "view",
      "type": "function"
    },
    {
      "inputs": [
        {
          "internalType": "bytes32",
          "name": "role",
          "type": "bytes32"
        },
        {
          "internalType": "address",
          "name": "account",
          "type": "address"
        }
      ],
      "name": "grantRole",
      "outputs": [],
      "stateMutability": "nonpayable",
      "type": "function"
    },
    {
      "inputs": [
        {
          "internalType": "bytes32",
          "name": "role",
          "type": "bytes32"
        },
        {
          "internalType": "address",
          "name": "account",
          "type": "address"
        }
      ],
      "name": "hasRole",
      "outputs": [
        {
          "internalType": "bool",
          "name": "",
          "type": "bool"
        }
      ],
      "stateMutability": "view",
      "type": "function"
    },
    {
      "inputs": [
        {
          "internalType": "address",
          "name": "spender",
          "type": "address"
        },
        {
          "internalType": "uint256",
          "name": "addedValue",
          "type": "uint256"
        }
      ],
      "name": "increaseAllowance",
      "outputs": [
        {
          "internalType": "bool",
          "name": "",
          "type": "bool"
        }
      ],
      "stateMutability": "nonpayable",
      "type": "function"
    },
    {
      "inputs": [
        {
          "internalType": "address",
          "name": "to",
          "type": "address"
        },
        {
          "internalType": "uint256",
          "name": "amount",
          "type": "uint256"
        }
      ],
      "name": "mint",
      "outputs": [],
      "stateMutability": "nonpayable",
      "type": "function"
    },
    {
      "inputs": [],
      "name": "name",
      "outputs": [
        {
          "internalType": "string",
          "name": "",
          "type": "string"
        }
      ],
      "stateMutability": "view",
      "type": "function"
    },
    {
      "inputs": [],
      "name": "pause",
      "outputs": [],
      "stateMutability": "nonpayable",
      "type": "function"
    },
    {
      "inputs": [],
      "name": "paused",
      "outputs": [
        {
          "internalType": "bool",
          "name": "",
          "type": "bool"
        }
      ],
      "stateMutability": "view",
      "type": "function"
    },
    {
      "inputs": [
        {
          "internalType": "bytes32",
          "name": "role",
          "type": "bytes32"
        },
        {
          "internalType": "address",
          "name": "account",
          "type": "address"
        }
      ],
      "name": "renounceRole",
      "outputs": [],
      "stateMutability": "nonpayable",
      "type": "function"
    },
    {
      "inputs": [
        {
          "internalType": "bytes32",
          "name": "role",
          "type": "bytes32"
        },
        {
          "internalType": "address",
          "name": "account",
          "type": "address"
        }
      ],
      "name": "revokeRole",
      "outputs": [],
      "stateMutability": "nonpayable",
      "type": "function"
    },
    {
      "inputs": [
        {
          "internalType": "bytes4",
          "name": "interfaceId",
          "type": "bytes4"
        }
      ],
      "name": "supportsInterface",
      "outputs": [
        {
          "internalType": "bool",
          "name": "",
          "type": "bool"
        }
      ],
      "stateMutability": "view",
      "type": "function"
    },
    {
      "inputs": [],
      "name": "symbol",
      "outputs": [
        {
          "internalType": "string",
          "name": "",
          "type": "string"
        }
      ],
      "stateMutability": "view",
      "type": "function"
    },
    {
      "inputs": [],
      "name": "totalSupply",
      "outputs": [
        {
          "internalType": "uint256",
          "name": "",
          "type": "uint256"
        }
      ],
      "stateMutability": "view",
      "type": "function"
    },
    {
      "inputs": [
        {
          "internalType": "address",
          "name": "to",
          "type": "address"
        },
        {
          "internalType": "uint256",
          "name": "amount",
          "type": "uint256"
        }
      ],
      "name": "transfer",
      "outputs": [
        {
          "internalType": "bool",
          "name": "",
          "type": "bool"
        }
      ],
      "stateMutability": "nonpayable",
      "type": "function"
    },
    {
      "inputs": [
        {
          "internalType": "address",
          "name": "from",
          "type": "address"
        },
        {
          "internalType": "address",
          "name": "to",
          "type": "address"
        },
        {
          "internalType": "uint256",
          "name": "amount",
          "type": "uint256"
        }
      ],
      "name": "transferFrom",
      "outputs": [
        {
          "internalType": "bool",
          "name": "",
          "type": "bool"
        }
      ],
      "stateMutability": "nonpayable",
      "type": "function"
    },
    {
      "inputs": [],
      "name": "unpause",
      "outputs": [],
      "stateMutability": "nonpayable",
      "type": "function"
    }
  ],
  "bytecode": "0x60a06040523480156200001157600080fd5b50604051620016c1380380620016c1833981016040819052620000349162000336565b6040805180820182526009815268047616d652053746f760bc1b602080830191825283518085019094526003845262474d4560e81b908401526000805460ff19169055815169021e19e0c9bab2400000939162000095916005919062000290565b508051620000ab90600690602084019062000290565b50505060008111620001045760405162461bcd60e51b815260206004820152601560248201527f45524332304361707065643a206361702069732030000000000000000000000060448201526064015b60405180910390fd5b6080526200011460008262000151565b620001407f65d7a28e3265b37a6474929f336521b332c1681b933f6cb9f3376673440d862a8262000151565b6200014a62000161565b50620003a5565b6200015d8282620001be565b5050565b6200016b62000246565b6000805460ff191660011790557f62e78cea01bee320cd4e420270b5ea74000d11b0c9f74754ebdbfc544b05a258620001a13390565b6040516001600160a01b03909116815260200160405180910390a1565b60008281526001602090815260408083206001600160a01b038516845290915290205460ff166200015d5760008281526001602081815260408084206001600160a01b0386168086529252808420805460ff19169093179092559051339285917f2f8788117e7eff1d82e926ec794901d17c78024a50270940304540a733656f0d9190a45050565b60005460ff16156200028e5760405162461bcd60e51b815260206004820152601060248201526f14185d5cd8589b194e881c185d5cd95960821b6044820152606401620000fb565b565b8280546200029e9062000368565b90600052602060002090601f016020900481019282620002c257600085556200030d565b82601f10620002dd57805160ff19168380011785556200030d565b828001600101855582156200030d579182015b828111156200030d578251825591602001919060010190620002f0565b506200031b9291506200031f565b5090565b5b808211156200031b576000815560010162000320565b6000602082840312156200034957600080fd5b81516001600160a01b03811681146200036157600080fd5b9392505050565b600181811c908216806200037d57607f821691505b602082108114156200039f57634e487b7160e01b600052602260045260246000fd5b50919050565b6080516112f9620003c8600039600081816102110152610b4c01526112f96000f3fe608060405234801561001057600080fd5b506004361061014d5760003560e01c80633f4ba83a116100c357806395d89b411161007c57806395d89b41146102c5578063a217fddf146102cd578063a457c2d7146102d5578063a9059cbb146102e8578063d547741f146102fb578063dd62ed3e1461030e57600080fd5b80633f4ba83a1461025b57806340c10f19146102635780635c975abb1461027657806370a08231146102815780638456cb59146102aa57806391d14854146102b257600080fd5b8063248a9ca311610115578063248a9ca3146101c75780632f2ff15d146101eb578063313ce56714610200578063355274ea1461020f57806336568abe14610235578063395093511461024857600080fd5b806301ffc9a71461015257806306fdde031461017a578063095ea7b31461018f57806318160ddd146101a257806323b872dd146101b4575b600080fd5b610165610160366004610fee565b610321565b60405190151581526020015b60405180910390f35b610182610358565b6040516101719190611044565b61016561019d366004611093565b6103ea565b6004545b604051908152602001610171565b6101656101c23660046110bd565b610402565b6101a66101d53660046110f9565b6000908152600160208190526040909120015490565b6101fe6101f9366004611112565b610426565b005b60405160128152602001610171565b7f00000000000000000000000000000000000000000000000000000000000000006101a6565b6101fe610243366004611112565b610451565b610165610256366004611093565b6104d4565b6101fe6104f6565b6101fe610271366004611093565b61052b565b60005460ff16610165565b6101a661028f36600461113e565b6001600160a01b031660009081526002602052604090205490565b6101fe61055f565b6101656102c0366004611112565b610591565b6101826105bc565b6101a6600081565b6101656102e3366004611093565b6105cb565b6101656102f6366004611093565b610646565b6101fe610309366004611112565b610654565b6101a661031c366004611159565b61067a565b60006001600160e01b03198216637965db0b60e01b148061035257506301ffc9a760e01b6001600160e01b03198316145b92915050565b60606005805461036790611183565b80601f016020809104026020016040519081016040528092919081815260200182805461039390611183565b80156103e05780601f106103b5576101008083540402835291602001916103e0565b820191906000526020600020905b8154815290600101906020018083116103c357829003601f168201915b5050505050905090565b6000336103f88185856106a5565b5060019392505050565b6000336104108582856107c9565b61041b858585610843565b506001949350505050565b6000828152600160208190526040909120015461044281610a1c565b61044c8383610a26565b505050565b6001600160a01b03811633146104c65760405162461bcd60e51b815260206004820152602f60248201527f416363657373436f6e74726f6c3a2063616e206f6e6c792072656e6f756e636560448201526e103937b632b9903337b91039b2b63360891b60648201526084015b60405180910390fd5b6104d08282610a91565b5050565b6000336103f88185856104e7838361067a565b6104f191906111d4565b6106a5565b7f65d7a28e3265b37a6474929f336521b332c1681b933f6cb9f3376673440d862a61052081610a1c565b610528610af8565b50565b7f9f2df0fed2c77648de5860a4cc508cd0818c85b8b8a1ab4ceeef8d981c8956a661055581610a1c565b61044c8383610b4a565b7f65d7a28e3265b37a6474929f336521b332c1681b933f6cb9f3376673440d862a61058981610a1c565b610528610bd7565b60009182526001602090815260408084206001600160a01b0393909316845291905290205460ff1690565b60606006805461036790611183565b600033816105d9828661067a565b9050838110156106395760405162461bcd60e51b815260206004820152602560248201527f45524332303a2064656372656173656420616c6c6f77616e63652062656c6f77604482015264207a65726f60d81b60648201526084016104bd565b61041b82868684036106a5565b6000336103f8818585610843565b6000828152600160208190526040909120015461067081610a1c565b61044c8383610a91565b6001600160a01b03918216600090815260036020908152604080832093909416825291909152205490565b6001600160a01b0383166107075760405162461bcd60e51b8152602060048201526024808201527f45524332303a20617070726f76652066726f6d20746865207a65726f206164646044820152637265737360e01b60648201526084016104bd565b6001600160a01b0382166107685760405162461bcd60e51b815260206004820152602260248201527f45524332303a20617070726f766520746f20746865207a65726f206164647265604482015261737360f01b60648201526084016104bd565b6001600160a01b0383811660008181526003602090815260408083209487168084529482529182902085905590518481527f8c5be1e5ebec7d5bd14f71427d1e84f3dd0314c0f7b2291e5b200ac8c7c3b925910160405180910390a3505050565b60006107d5848461067a565b9050600019811461083d57818110156108305760405162461bcd60e51b815260206004820152601d60248201527f45524332303a20696e73756666696369656e7420616c6c6f77616e636500000060448201526064016104bd565b61083d84848484036106a5565b50505050565b6001600160a01b0383166108a75760405162461bcd60e51b815260206004820152602560248201527f45524332303a207472616e736665722066726f6d20746865207a65726f206164604482015264647265737360d81b60648201526084016104bd565b6001600160a01b0382166109095760405162461bcd60e51b815260206004820152602360248201527f45524332303a207472616e7366657220746f20746865207a65726f206164647260448201526265737360e81b60648201526084016104bd565b610914838383610c14565b6001600160a01b0383166000908152600260205260409020548181101561098c5760405162461bcd60e51b815260206004820152602660248201527f45524332303a207472616e7366657220616d6f756e7420657863656564732062604482015265616c616e636560d01b60648201526084016104bd565b6001600160a01b038085166000908152600260205260408082208585039055918516815290812080548492906109c39084906111d4565b92505081905550826001600160a01b0316846001600160a01b03167fddf252ad1be2c89b69c2b068fc378daa952ba7f163c4a11628f55a4df523b3ef84604051610a0f91815260200190565b60405180910390a361083d565b6105288133610c6b565b610a308282610591565b6104d05760008281526001602081815260408084206001600160a01b0386168086529252808420805460ff19169093179092559051339285917f2f8788117e7eff1d82e926ec794901d17c78024a50270940304540a733656f0d9190a45050565b610a9b8282610591565b156104d05760008281526001602090815260408083206001600160a01b0385168085529252808320805460ff1916905551339285917ff6391f5c32d9c69d2a47ea670b442974b53935d1edc7fd64eb21e047a839171b9190a45050565b610b00610ccf565b6000805460ff191690557f5db9ee0a495bf2e6ff9c91a7834c1ba4fdd244a5e8aa4e537bd38aeae4b073aa335b6040516001600160a01b03909116815260200160405180910390a1565b7f000000000000000000000000000000000000000000000000000000000000000081610b7560045490565b610b7f91906111d4565b1115610bcd5760405162461bcd60e51b815260206004820152601960248201527f45524332304361707065643a206361702065786365656465640000000000000060448201526064016104bd565b6104d08282610d1a565b610bdf610e05565b6000805460ff191660011790557f62e78cea01bee320cd4e420270b5ea74000d11b0c9f74754ebdbfc544b05a258610b2d3390565b610c3e7f9f2df0fed2c77648de5860a4cc508cd0818c85b8b8a1ab4ceeef8d981c8956a633610591565b158015610c4d575060005460ff165b1561044c5760405163574b16a760e11b815260040160405180910390fd5b610c758282610591565b6104d057610c8d816001600160a01b03166014610e4b565b610c98836020610e4b565b604051602001610ca99291906111ec565b60408051601f198184030181529082905262461bcd60e51b82526104bd91600401611044565b60005460ff16610d185760405162461bcd60e51b815260206004820152601460248201527314185d5cd8589b194e881b9bdd081c185d5cd95960621b60448201526064016104bd565b565b6001600160a01b038216610d705760405162461bcd60e51b815260206004820152601f60248201527f45524332303a206d696e7420746f20746865207a65726f20616464726573730060448201526064016104bd565b610d7c60008383610c14565b8060046000828254610d8e91906111d4565b90915550506001600160a01b03821660009081526002602052604081208054839290610dbb9084906111d4565b90915550506040518181526001600160a01b038316906000907fddf252ad1be2c89b69c2b068fc378daa952ba7f163c4a11628f55a4df523b3ef9060200160405180910390a35050565b60005460ff1615610d185760405162461bcd60e51b815260206004820152601060248201526f14185d5cd8589b194e881c185d5cd95960821b60448201526064016104bd565b60606000610e5a836002611261565b610e659060026111d4565b67ffffffffffffffff811115610e7d57610e7d611280565b6040519080825280601f01601f191660200182016040528015610ea7576020820181803683370190505b509050600360fc1b81600081518110610ec257610ec2611296565b60200101906001600160f81b031916908160001a905350600f60fb1b81600181518110610ef157610ef1611296565b60200101906001600160f81b031916908160001a9053506000610f15846002611261565b610f209060016111d4565b90505b6001811115610f98576f181899199a1a9b1b9c1cb0b131b232b360811b85600f1660108110610f5457610f54611296565b1a60f81b828281518110610f6a57610f6a611296565b60200101906001600160f81b031916908160001a90535060049490941c93610f91816112ac565b9050610f23565b508315610fe75760405162461bcd60e51b815260206004820181905260248201527f537472696e67733a20686578206c656e67746820696e73756666696369656e7460448201526064016104bd565b9392505050565b60006020828403121561100057600080fd5b81356001600160e01b031981168114610fe757600080fd5b60005b8381101561103357818101518382015260200161101b565b8381111561083d5750506000910152565b6020815260008251806020840152611063816040850160208701611018565b601f01601f19169190910160400192915050565b80356001600160a01b038116811461108e57600080fd5b919050565b600080604083850312156110a657600080fd5b6110af83611077565b946020939093013593505050565b6000806000606084860312156110d257600080fd5b6110db84611077565b92506110e960208501611077565b9150604084013590509250925092565b60006020828403121561110b57600080fd5b5035919050565b6000806040838503121561112557600080fd5b8235915061113560208401611077565b90509250929050565b60006020828403121561115057600080fd5b610fe782611077565b6000806040838503121561116c57600080fd5b61117583611077565b915061113560208401611077565b600181811c9082168061119757607f821691505b602082108114156111b857634e487b7160e01b600052602260045260246000fd5b50919050565b634e487b7160e01b600052601160045260246000fd5b600082198211156111e7576111e76111be565b500190565b7f416363657373436f6e74726f6c3a206163636f756e7420000000000000000000815260008351611224816017850160208801611018565b7001034b99036b4b9b9b4b733903937b6329607d1b6017918401918201528351611255816028840160208801611018565b01602801949350505050565b600081600019048311821515161561127b5761127b6111be565b500290565b634e487b7160e01b600052604160045260246000fd5b634e487b7160e01b600052603260045260246000fd5b6000816112bb576112bb6111be565b50600019019056fea26469706673582212205ca2c516ba7768e5a6572742458c9b18c2de7ebdb93028ad7ebf91bc8651d56a64736f6c63430008090033",
  "linkReferences": {},
  "deployedLinkReferences": {}
}